{
  "_format": "hh-sol-artifact-1",
  "contractName": "Oraclize",
  "sourceName": "contracts/connector.sol",
  "abi": [
    {
      "inputs": [],
      "stateMutability": "nonpayable",
      "type": "constructor"
    },
    {
      "anonymous": false,
      "inputs": [
        {
          "indexed": true,
          "internalType": "address",
          "name": "idx_sender",
          "type": "address"
        },
        {
          "indexed": false,
          "internalType": "address",
          "name": "sender",
          "type": "address"
        },
        {
          "indexed": true,
          "internalType": "bool",
          "name": "idx_flag",
          "type": "bool"
        },
        {
          "indexed": false,
          "internalType": "bool",
          "name": "flag",
          "type": "bool"
        }
      ],
      "name": "Emit_OffchainPaymentFlag",
      "type": "event"
    },
    {
      "anonymous": false,
      "inputs": [
        {
          "indexed": false,
          "internalType": "address",
          "name": "sender",
          "type": "address"
        },
        {
          "indexed": false,
          "internalType": "bytes32",
          "name": "cid",
          "type": "bytes32"
        },
        {
          "indexed": false,
          "internalType": "uint256",
          "name": "timestamp",
          "type": "uint256"
        },
        {
          "indexed": false,
          "internalType": "string",
          "name": "datasource",
          "type": "string"
        },
        {
          "indexed": false,
          "internalType": "string",
          "name": "arg",
          "type": "string"
        },
        {
          "indexed": false,
          "internalType": "uint256",
          "name": "gaslimit",
          "type": "uint256"
        },
        {
          "indexed": false,
          "internalType": "bytes1",
          "name": "proofType",
          "type": "bytes1"
        },
        {
          "indexed": false,
          "internalType": "uint256",
          "name": "gasPrice",
          "type": "uint256"
        }
      ],
      "name": "Log1",
      "type": "event"
    },
    {
      "anonymous": false,
      "inputs": [
        {
          "indexed": false,
          "internalType": "address",
          "name": "sender",
          "type": "address"
        },
        {
          "indexed": false,
          "internalType": "bytes32",
          "name": "cid",
          "type": "bytes32"
        },
        {
          "indexed": false,
          "internalType": "uint256",
          "name": "timestamp",
          "type": "uint256"
        },
        {
          "indexed": false,
          "internalType": "string",
          "name": "datasource",
          "type": "string"
        },
        {
          "indexed": false,
          "internalType": "string",
          "name": "arg",
          "type": "string"
        },
        {
          "indexed": false,
          "internalType": "function () external",
          "name": "callback",
          "type": "function"
        },
        {
          "indexed": false,
          "internalType": "uint256",
          "name": "gaslimit",
          "type": "uint256"
        },
        {
          "indexed": false,
          "internalType": "bytes1",
          "name": "proofType",
          "type": "bytes1"
        },
        {
          "indexed": false,
          "internalType": "uint256",
          "name": "gasPrice",
          "type": "uint256"
        }
      ],
      "name": "Log1_fnc",
      "type": "event"
    },
    {
      "anonymous": false,
      "inputs": [
        {
          "indexed": false,
          "internalType": "address",
          "name": "sender",
          "type": "address"
        },
        {
          "indexed": false,
          "internalType": "bytes32",
          "name": "cid",
          "type": "bytes32"
        },
        {
          "indexed": false,
          "internalType": "uint256",
          "name": "timestamp",
          "type": "uint256"
        },
        {
          "indexed": false,
          "internalType": "string",
          "name": "datasource",
          "type": "string"
        },
        {
          "indexed": false,
          "internalType": "string",
          "name": "arg1",
          "type": "string"
        },
        {
          "indexed": false,
          "internalType": "string",
          "name": "arg2",
          "type": "string"
        },
        {
          "indexed": false,
          "internalType": "uint256",
          "name": "gaslimit",
          "type": "uint256"
        },
        {
          "indexed": false,
          "internalType": "bytes1",
          "name": "proofType",
          "type": "bytes1"
        },
        {
          "indexed": false,
          "internalType": "uint256",
          "name": "gasPrice",
          "type": "uint256"
        }
      ],
      "name": "Log2",
      "type": "event"
    },
    {
      "anonymous": false,
      "inputs": [
        {
          "indexed": false,
          "internalType": "address",
          "name": "sender",
          "type": "address"
        },
        {
          "indexed": false,
          "internalType": "bytes32",
          "name": "cid",
          "type": "bytes32"
        },
        {
          "indexed": false,
          "internalType": "uint256",
          "name": "timestamp",
          "type": "uint256"
        },
        {
          "indexed": false,
          "internalType": "string",
          "name": "datasource",
          "type": "string"
        },
        {
          "indexed": false,
          "internalType": "string",
          "name": "arg1",
          "type": "string"
        },
        {
          "indexed": false,
          "internalType": "string",
          "name": "arg2",
          "type": "string"
        },
        {
          "indexed": false,
          "internalType": "function () external",
          "name": "callback",
          "type": "function"
        },
        {
          "indexed": false,
          "internalType": "uint256",
          "name": "gaslimit",
          "type": "uint256"
        },
        {
          "indexed": false,
          "internalType": "bytes1",
          "name": "proofType",
          "type": "bytes1"
        },
        {
          "indexed": false,
          "internalType": "uint256",
          "name": "gasPrice",
          "type": "uint256"
        }
      ],
      "name": "Log2_fnc",
      "type": "event"
    },
    {
      "anonymous": false,
      "inputs": [
        {
          "indexed": false,
          "internalType": "address",
          "name": "sender",
          "type": "address"
        },
        {
          "indexed": false,
          "internalType": "bytes32",
          "name": "cid",
          "type": "bytes32"
        },
        {
          "indexed": false,
          "internalType": "uint256",
          "name": "timestamp",
          "type": "uint256"
        },
        {
          "indexed": false,
          "internalType": "string",
          "name": "datasource",
          "type": "string"
        },
        {
          "indexed": false,
          "internalType": "bytes",
          "name": "args",
          "type": "bytes"
        },
        {
          "indexed": false,
          "internalType": "uint256",
          "name": "gaslimit",
          "type": "uint256"
        },
        {
          "indexed": false,
          "internalType": "bytes1",
          "name": "proofType",
          "type": "bytes1"
        },
        {
          "indexed": false,
          "internalType": "uint256",
          "name": "gasPrice",
          "type": "uint256"
        }
      ],
      "name": "LogN",
      "type": "event"
    },
    {
      "anonymous": false,
      "inputs": [
        {
          "indexed": false,
          "internalType": "address",
          "name": "sender",
          "type": "address"
        },
        {
          "indexed": false,
          "internalType": "bytes32",
          "name": "cid",
          "type": "bytes32"
        },
        {
          "indexed": false,
          "internalType": "uint256",
          "name": "timestamp",
          "type": "uint256"
        },
        {
          "indexed": false,
          "internalType": "string",
          "name": "datasource",
          "type": "string"
        },
        {
          "indexed": false,
          "internalType": "bytes",
          "name": "args",
          "type": "bytes"
        },
        {
          "indexed": false,
          "internalType": "function () external",
          "name": "callback",
          "type": "function"
        },
        {
          "indexed": false,
          "internalType": "uint256",
          "name": "gaslimit",
          "type": "uint256"
        },
        {
          "indexed": false,
          "internalType": "bytes1",
          "name": "proofType",
          "type": "bytes1"
        },
        {
          "indexed": false,
          "internalType": "uint256",
          "name": "gasPrice",
          "type": "uint256"
        }
      ],
      "name": "LogN_fnc",
      "type": "event"
    },
    {
      "inputs": [
        {
          "internalType": "address",
          "name": "newCbAddress",
          "type": "address"
        },
        {
          "internalType": "bytes1",
          "name": "addressType",
          "type": "bytes1"
        }
      ],
      "name": "addCbAddress",
      "outputs": [],
      "stateMutability": "nonpayable",
      "type": "function"
    },
    {
      "inputs": [
        {
          "internalType": "address",
          "name": "newCbAddress",
          "type": "address"
        },
        {
          "internalType": "bytes1",
          "name": "addressType",
          "type": "bytes1"
        },
        {
          "internalType": "bytes",
          "name": "proof",
          "type": "bytes"
        }
      ],
      "name": "addCbAddress",
      "outputs": [],
      "stateMutability": "nonpayable",
      "type": "function"
    },
    {
      "inputs": [
        {
          "internalType": "string",
          "name": "dsname",
          "type": "string"
        },
        {
          "internalType": "uint256",
          "name": "multiplier",
          "type": "uint256"
        }
      ],
      "name": "addDSource",
      "outputs": [],
      "stateMutability": "nonpayable",
      "type": "function"
    },
    {
      "inputs": [
        {
          "internalType": "string",
          "name": "dsname",
          "type": "string"
        },
        {
          "internalType": "bytes1",
          "name": "proofType",
          "type": "bytes1"
        },
        {
          "internalType": "uint256",
          "name": "multiplier",
          "type": "uint256"
        }
      ],
      "name": "addDSource",
      "outputs": [],
      "stateMutability": "nonpayable",
      "type": "function"
    },
    {
      "inputs": [],
      "name": "baseprice",
      "outputs": [
        {
          "internalType": "uint256",
          "name": "",
          "type": "uint256"
        }
      ],
      "stateMutability": "view",
      "type": "function"
    },
    {
      "inputs": [
        {
          "internalType": "address",
          "name": "_sender",
          "type": "address"
        }
      ],
      "name": "cbAddress",
      "outputs": [
        {
          "internalType": "address",
          "name": "_cbAddress",
          "type": "address"
        }
      ],
      "stateMutability": "view",
      "type": "function"
    },
    {
      "inputs": [
        {
          "internalType": "address",
          "name": "",
          "type": "address"
        }
      ],
      "name": "cbAddresses",
      "outputs": [
        {
          "internalType": "bytes1",
          "name": "",
          "type": "bytes1"
        }
      ],
      "stateMutability": "view",
      "type": "function"
    },
    {
      "inputs": [
        {
          "internalType": "address",
          "name": "_newAdmin",
          "type": "address"
        }
      ],
      "name": "changeAdmin",
      "outputs": [],
      "stateMutability": "nonpayable",
      "type": "function"
    },
    {
      "inputs": [
        {
          "internalType": "address",
          "name": "_newFlagger",
          "type": "address"
        }
      ],
      "name": "changePaymentFlagger",
      "outputs": [],
      "stateMutability": "nonpayable",
      "type": "function"
    },
    {
      "inputs": [
        {
          "internalType": "string",
          "name": "_datasource",
          "type": "string"
        },
        {
          "internalType": "uint256",
          "name": "_gaslimit",
          "type": "uint256"
        }
      ],
      "name": "getPrice",
      "outputs": [
        {
          "internalType": "uint256",
          "name": "_dsprice",
          "type": "uint256"
        }
      ],
      "stateMutability": "nonpayable",
      "type": "function"
    },
    {
      "inputs": [
        {
          "internalType": "string",
          "name": "_datasource",
          "type": "string"
        }
      ],
      "name": "getPrice",
      "outputs": [
        {
          "internalType": "uint256",
          "name": "_dsprice",
          "type": "uint256"
        }
      ],
      "stateMutability": "nonpayable",
      "type": "function"
    },
    {
      "inputs": [
        {
          "internalType": "bytes32[]",
          "name": "dsHash",
          "type": "bytes32[]"
        },
        {
          "internalType": "uint256[]",
          "name": "multiplier",
          "type": "uint256[]"
        }
      ],
      "name": "multiAddDSource",
      "outputs": [],
      "stateMutability": "nonpayable",
      "type": "function"
    },
    {
      "inputs": [
        {
          "internalType": "uint256[]",
          "name": "_gasPrice",
          "type": "uint256[]"
        },
        {
          "internalType": "address[]",
          "name": "_addr",
          "type": "address[]"
        }
      ],
      "name": "multisetCustomGasPrice",
      "outputs": [],
      "stateMutability": "nonpayable",
      "type": "function"
    },
    {
      "inputs": [
        {
          "internalType": "uint256[]",
          "name": "_proofType",
          "type": "uint256[]"
        },
        {
          "internalType": "address[]",
          "name": "_addr",
          "type": "address[]"
        }
      ],
      "name": "multisetProofType",
      "outputs": [],
      "stateMutability": "nonpayable",
      "type": "function"
    },
    {
      "inputs": [
        {
          "internalType": "address",
          "name": "",
          "type": "address"
        }
      ],
      "name": "offchainPayment",
      "outputs": [
        {
          "internalType": "bool",
          "name": "",
          "type": "bool"
        }
      ],
      "stateMutability": "view",
      "type": "function"
    },
    {
      "inputs": [
        {
          "internalType": "string",
          "name": "_datasource",
          "type": "string"
        },
        {
          "internalType": "string",
          "name": "_arg",
          "type": "string"
        }
      ],
      "name": "query",
      "outputs": [
        {
          "internalType": "bytes32",
          "name": "_id",
          "type": "bytes32"
        }
      ],
      "stateMutability": "payable",
      "type": "function"
    },
    {
      "inputs": [
        {
          "internalType": "uint256",
          "name": "_timestamp",
          "type": "uint256"
        },
        {
          "internalType": "string",
          "name": "_datasource",
          "type": "string"
        },
        {
          "internalType": "string",
          "name": "_arg",
          "type": "string"
        }
      ],
      "name": "query",
      "outputs": [
        {
          "internalType": "bytes32",
          "name": "_id",
          "type": "bytes32"
        }
      ],
      "stateMutability": "payable",
      "type": "function"
    },
    {
      "inputs": [
        {
          "internalType": "uint256",
          "name": "_timestamp",
          "type": "uint256"
        },
        {
          "internalType": "string",
          "name": "_datasource",
          "type": "string"
        },
        {
          "internalType": "string",
          "name": "_arg",
          "type": "string"
        }
      ],
      "name": "query1",
      "outputs": [
        {
          "internalType": "bytes32",
          "name": "_id",
          "type": "bytes32"
        }
      ],
      "stateMutability": "payable",
      "type": "function"
    },
    {
      "inputs": [
        {
          "internalType": "string",
          "name": "_datasource",
          "type": "string"
        },
        {
          "internalType": "string",
          "name": "_arg",
          "type": "string"
        }
      ],
      "name": "query1",
      "outputs": [
        {
          "internalType": "bytes32",
          "name": "_id",
          "type": "bytes32"
        }
      ],
      "stateMutability": "payable",
      "type": "function"
    },
    {
      "inputs": [
        {
          "internalType": "uint256",
          "name": "_timestamp",
          "type": "uint256"
        },
        {
          "internalType": "string",
          "name": "_datasource",
          "type": "string"
        },
        {
          "internalType": "string",
          "name": "_arg",
          "type": "string"
        },
        {
          "internalType": "uint256",
          "name": "_gaslimit",
          "type": "uint256"
        }
      ],
      "name": "query1",
      "outputs": [
        {
          "internalType": "bytes32",
          "name": "_id",
          "type": "bytes32"
        }
      ],
      "stateMutability": "payable",
      "type": "function"
    },
    {
      "inputs": [
        {
          "internalType": "uint256",
          "name": "_timestamp",
          "type": "uint256"
        },
        {
          "internalType": "string",
          "name": "_datasource",
          "type": "string"
        },
        {
          "internalType": "string",
          "name": "_arg",
          "type": "string"
        },
        {
          "internalType": "function () external",
          "name": "_fnc",
          "type": "function"
        },
        {
          "internalType": "uint256",
          "name": "_gaslimit",
          "type": "uint256"
        }
      ],
      "name": "query1_fnc",
      "outputs": [
        {
          "internalType": "bytes32",
          "name": "_id",
          "type": "bytes32"
        }
      ],
      "stateMutability": "payable",
      "type": "function"
    },
    {
      "inputs": [
        {
          "internalType": "uint256",
          "name": "_timestamp",
          "type": "uint256"
        },
        {
          "internalType": "string",
          "name": "_datasource",
          "type": "string"
        },
        {
          "internalType": "string",
          "name": "_arg",
          "type": "string"
        },
        {
          "internalType": "uint256",
          "name": "_gaslimit",
          "type": "uint256"
        }
      ],
      "name": "query1_withGasLimit",
      "outputs": [
        {
          "internalType": "bytes32",
          "name": "_id",
          "type": "bytes32"
        }
      ],
      "stateMutability": "payable",
      "type": "function"
    },
    {
      "inputs": [
        {
          "internalType": "uint256",
          "name": "_timestamp",
          "type": "uint256"
        },
        {
          "internalType": "string",
          "name": "_datasource",
          "type": "string"
        },
        {
          "internalType": "string",
          "name": "_arg1",
          "type": "string"
        },
        {
          "internalType": "string",
          "name": "_arg2",
          "type": "string"
        }
      ],
      "name": "query2",
      "outputs": [
        {
          "internalType": "bytes32",
          "name": "_id",
          "type": "bytes32"
        }
      ],
      "stateMutability": "payable",
      "type": "function"
    },
    {
      "inputs": [
        {
          "internalType": "uint256",
          "name": "_timestamp",
          "type": "uint256"
        },
        {
          "internalType": "string",
          "name": "_datasource",
          "type": "string"
        },
        {
          "internalType": "string",
          "name": "_arg1",
          "type": "string"
        },
        {
          "internalType": "string",
          "name": "_arg2",
          "type": "string"
        },
        {
          "internalType": "uint256",
          "name": "_gaslimit",
          "type": "uint256"
        }
      ],
      "name": "query2",
      "outputs": [
        {
          "internalType": "bytes32",
          "name": "_id",
          "type": "bytes32"
        }
      ],
      "stateMutability": "payable",
      "type": "function"
    },
    {
      "inputs": [
        {
          "internalType": "string",
          "name": "_datasource",
          "type": "string"
        },
        {
          "internalType": "string",
          "name": "_arg1",
          "type": "string"
        },
        {
          "internalType": "string",
          "name": "_arg2",
          "type": "string"
        }
      ],
      "name": "query2",
      "outputs": [
        {
          "internalType": "bytes32",
          "name": "_id",
          "type": "bytes32"
        }
      ],
      "stateMutability": "payable",
      "type": "function"
    },
    {
      "inputs": [
        {
          "internalType": "uint256",
          "name": "_timestamp",
          "type": "uint256"
        },
        {
          "internalType": "string",
          "name": "_datasource",
          "type": "string"
        },
        {
          "internalType": "string",
          "name": "_arg1",
          "type": "string"
        },
        {
          "internalType": "string",
          "name": "_arg2",
          "type": "string"
        },
        {
          "internalType": "function () external",
          "name": "_fnc",
          "type": "function"
        },
        {
          "internalType": "uint256",
          "name": "_gaslimit",
          "type": "uint256"
        }
      ],
      "name": "query2_fnc",
      "outputs": [
        {
          "internalType": "bytes32",
          "name": "_id",
          "type": "bytes32"
        }
      ],
      "stateMutability": "payable",
      "type": "function"
    },
    {
      "inputs": [
        {
          "internalType": "uint256",
          "name": "_timestamp",
          "type": "uint256"
        },
        {
          "internalType": "string",
          "name": "_datasource",
          "type": "string"
        },
        {
          "internalType": "string",
          "name": "_arg1",
          "type": "string"
        },
        {
          "internalType": "string",
          "name": "_arg2",
          "type": "string"
        },
        {
          "internalType": "uint256",
          "name": "_gaslimit",
          "type": "uint256"
        }
      ],
      "name": "query2_withGasLimit",
      "outputs": [
        {
          "internalType": "bytes32",
          "name": "_id",
          "type": "bytes32"
        }
      ],
      "stateMutability": "payable",
      "type": "function"
    },
    {
      "inputs": [
        {
          "internalType": "uint256",
          "name": "_timestamp",
          "type": "uint256"
        },
        {
          "internalType": "string",
          "name": "_datasource",
          "type": "string"
        },
        {
          "internalType": "bytes",
          "name": "_args",
          "type": "bytes"
        },
        {
          "internalType": "uint256",
          "name": "_gaslimit",
          "type": "uint256"
        }
      ],
      "name": "queryN",
      "outputs": [
        {
          "internalType": "bytes32",
          "name": "_id",
          "type": "bytes32"
        }
      ],
      "stateMutability": "payable",
      "type": "function"
    },
    {
      "inputs": [
        {
          "internalType": "uint256",
          "name": "_timestamp",
          "type": "uint256"
        },
        {
          "internalType": "string",
          "name": "_datasource",
          "type": "string"
        },
        {
          "internalType": "bytes",
          "name": "_args",
          "type": "bytes"
        }
      ],
      "name": "queryN",
      "outputs": [
        {
          "internalType": "bytes32",
          "name": "_id",
          "type": "bytes32"
        }
      ],
      "stateMutability": "payable",
      "type": "function"
    },
    {
      "inputs": [
        {
          "internalType": "string",
          "name": "_datasource",
          "type": "string"
        },
        {
          "internalType": "bytes",
          "name": "_args",
          "type": "bytes"
        }
      ],
      "name": "queryN",
      "outputs": [
        {
          "internalType": "bytes32",
          "name": "_id",
          "type": "bytes32"
        }
      ],
      "stateMutability": "payable",
      "type": "function"
    },
    {
      "inputs": [
        {
          "internalType": "uint256",
          "name": "_timestamp",
          "type": "uint256"
        },
        {
          "internalType": "string",
          "name": "_datasource",
          "type": "string"
        },
        {
          "internalType": "bytes",
          "name": "_args",
          "type": "bytes"
        },
        {
          "internalType": "function () external",
          "name": "_fnc",
          "type": "function"
        },
        {
          "internalType": "uint256",
          "name": "_gaslimit",
          "type": "uint256"
        }
      ],
      "name": "queryN_fnc",
      "outputs": [
        {
          "internalType": "bytes32",
          "name": "_id",
          "type": "bytes32"
        }
      ],
      "stateMutability": "payable",
      "type": "function"
    },
    {
      "inputs": [
        {
          "internalType": "uint256",
          "name": "_timestamp",
          "type": "uint256"
        },
        {
          "internalType": "string",
          "name": "_datasource",
          "type": "string"
        },
        {
          "internalType": "bytes",
          "name": "_args",
          "type": "bytes"
        },
        {
          "internalType": "uint256",
          "name": "_gaslimit",
          "type": "uint256"
        }
      ],
      "name": "queryN_withGasLimit",
      "outputs": [
        {
          "internalType": "bytes32",
          "name": "_id",
          "type": "bytes32"
        }
      ],
      "stateMutability": "payable",
      "type": "function"
    },
    {
      "inputs": [
        {
          "internalType": "uint256",
          "name": "_timestamp",
          "type": "uint256"
        },
        {
          "internalType": "string",
          "name": "_datasource",
          "type": "string"
        },
        {
          "internalType": "string",
          "name": "_arg",
          "type": "string"
        },
        {
          "internalType": "uint256",
          "name": "_gaslimit",
          "type": "uint256"
        }
      ],
      "name": "query_withGasLimit",
      "outputs": [
        {
          "internalType": "bytes32",
          "name": "_id",
          "type": "bytes32"
        }
      ],
      "stateMutability": "payable",
      "type": "function"
    },
    {
      "inputs": [],
      "name": "randomDS_getSessionPubKeyHash",
      "outputs": [
        {
          "internalType": "bytes32",
          "name": "",
          "type": "bytes32"
        }
      ],
      "stateMutability": "view",
      "type": "function"
    },
    {
      "inputs": [
        {
          "internalType": "uint256",
          "name": "",
          "type": "uint256"
        }
      ],
      "name": "randomDS_sessionPubKeysHash",
      "outputs": [
        {
          "internalType": "bytes32",
          "name": "",
          "type": "bytes32"
        }
      ],
      "stateMutability": "view",
      "type": "function"
    },
    {
      "inputs": [
        {
          "internalType": "bytes32[]",
          "name": "_newSessionPubKeysHash",
          "type": "bytes32[]"
        }
      ],
      "name": "randomDS_updateSessionPubKeysHash",
      "outputs": [],
      "stateMutability": "nonpayable",
      "type": "function"
    },
    {
      "inputs": [
        {
          "internalType": "address",
          "name": "newCbAddress",
          "type": "address"
        }
      ],
      "name": "removeCbAddress",
      "outputs": [],
      "stateMutability": "nonpayable",
      "type": "function"
    },
    {
      "inputs": [
        {
          "internalType": "uint256",
          "name": "new_baseprice",
          "type": "uint256"
        },
        {
          "internalType": "bytes",
          "name": "proofID",
          "type": "bytes"
        }
      ],
      "name": "setBasePrice",
      "outputs": [],
      "stateMutability": "nonpayable",
      "type": "function"
    },
    {
      "inputs": [
        {
          "internalType": "uint256",
          "name": "new_baseprice",
          "type": "uint256"
        }
      ],
      "name": "setBasePrice",
      "outputs": [],
      "stateMutability": "nonpayable",
      "type": "function"
    },
    {
      "inputs": [
        {
          "internalType": "uint256",
          "name": "_gasPrice",
          "type": "uint256"
        }
      ],
      "name": "setCustomGasPrice",
      "outputs": [],
      "stateMutability": "nonpayable",
      "type": "function"
    },
    {
      "inputs": [
        {
          "internalType": "uint256",
          "name": "newgasprice",
          "type": "uint256"
        }
      ],
      "name": "setGasPrice",
      "outputs": [],
      "stateMutability": "nonpayable",
      "type": "function"
    },
    {
      "inputs": [
        {
          "internalType": "address",
          "name": "_addr",
          "type": "address"
        },
        {
          "internalType": "bool",
          "name": "_flag",
          "type": "bool"
        }
      ],
      "name": "setOffchainPayment",
      "outputs": [],
      "stateMutability": "nonpayable",
      "type": "function"
    },
    {
      "inputs": [
        {
          "internalType": "bytes1",
          "name": "_proofType",
          "type": "bytes1"
        }
      ],
      "name": "setProofType",
      "outputs": [],
      "stateMutability": "nonpayable",
      "type": "function"
    },
    {
      "inputs": [
        {
          "internalType": "address payable",
          "name": "_addr",
          "type": "address"
        },
        {
          "internalType": "address",
          "name": "_token_addr",
          "type": "address"
        }
      ],
      "name": "withdrawFunds",
      "outputs": [],
      "stateMutability": "nonpayable",
      "type": "function"
    }
  ],
  "bytecode": "0x60806040526404a817c80060056200001662000096565b505034801562000030576000806200002d620000fd565b50505b505a6200003c6200016d565b600360006101000a816200004f620001cc565b8173ffffffffffffffffffffffffffffffffffffffff021916908373ffffffffffffffffffffffffffffffffffffffff160217906200008d62000096565b50505062000231565b6322bd64c0598160e01b8152836004820152846024820152600081604483336000905af158600e01573d6000803e3d6000fd5b3d6001141558600a015760016000f35b60005b6040811015620000f857600081830152602081019050620000dc565b505050565b632a2a7adb598160e01b8152600481016020815285602082015260005b868110156200013a5780860151816040840101526020810190506200011a565b506020828760640184336000905af158600e01573d6000803e3d6000fd5b3d6001141558600a015760016000f35b505050565b6373509064598160e01b8152602081600483336000905af158600e01573d6000803e3d6000fd5b3d6001141558600a015760016000f35b8051935060005b6040811015620001c757600081830152602081019050620001ab565b505050565b6303daa959598160e01b8152836004820152602081602483336000905af158600e01573d6000803e3d6000fd5b3d6001141558600a015760016000f35b8051935060005b60408110156200022c5760008183015260208101905062000210565b505050565b61671d80620002416000396000f3fe6080604052600436106102665760003560e01c806383eed3d511610144578063c55c1cb6116100b6578063dba8fc611161007a578063dba8fc6114612821578063de4b326214612a13578063e6c0e9e114612a60578063e839e65e14612ac1578063e8be385314612c52578063f84072a514612cc157610266565b8063c55c1cb6146123c0578063ca6ad1e4146124f5578063d959701614612542578063db23995114612665578063db37e42f146126fe57610266565b8063abaa5f3e11610108578063abaa5f3e14611d10578063ad44d0ca14611d44578063adf59f9914611fe8578063b5bfdd7314612113578063bf1fe4201461223e578063c51be90f1461228b57610266565b806383eed3d5146117ff57806385dee34c1461192a5780638f28397014611acf57806398cf6f2214611b32578063a2ec191a14611c5357610266565b8063688dcfd7116101dd5780637bc9165b116101a15780637bc9165b146111215780637d242ae51461119a5780637e1c420514611257578063801298fa146114c257806380325b2d1461152557806381ade307146116de57610266565b8063688dcfd714610b7e5780636c0f7ee714610bed5780637570043714610d105780637653740f14610e455780637722865914610f8657610266565b80634a64c23f1161022f5780634a64c23f1461068a578063512c0b9c146106ed578063524f3889146107a057806353c2d113146108a95780635c242c5914610936578063627fd3bb14610aef57610266565b80620fa9fb1461027457806323dc42e7146102f75780632ef3accc146104225780634536297814610535578063480a434d14610656575b600080610271616216565b50505b34801561028957600080610286616216565b50505b506102f5600480360360408110156102a9576000806102a6616216565b50505b81019080803573ffffffffffffffffffffffffffffffffffffffff169060200190929190803573ffffffffffffffffffffffffffffffffffffffff169060200190929190505050612eb3565b005b61040c6004803603606081101561031657600080610313616216565b50505b81019080803590602001909291908035906020019064010000000081111561034657600080610343616216565b50505b8201836020820111156103615760008061035e616216565b50505b8035906020019184600183028401116401000000008311171561038c57600080610389616216565b50505b9091929391929390803590602001906401000000008111156103b6576000806103b3616216565b50505b8201836020820111156103d1576000806103ce616216565b50505b803590602001918460018302840111640100000000831117156103fc576000806103f9616216565b50505b90919293919293905050506130cb565b6040518082815260200191505060405180910390f35b34801561043757600080610434616216565b50505b5061051f6004803603604081101561045757600080610454616216565b50505b810190808035906020019064010000000081111561047d5760008061047a616216565b50505b82018360208201111561049857600080610495616216565b50505b803590602001918460018302840111640100000000831117156104c3576000806104c0616216565b50505b91908080601f016020809104026020016040519081016040528093929190818152602001838380828437600081840152601f19601f8201169050808301925050505050505091929192908035906020019092919050505061316f565b6040518082815260200191505060405180910390f35b6106406004803603604081101561055457600080610551616216565b50505b810190808035906020019064010000000081111561057a57600080610577616216565b50505b82018360208201111561059557600080610592616216565b50505b803590602001918460018302840111640100000000831117156105c0576000806105bd616216565b50505b9091929391929390803590602001906401000000008111156105ea576000806105e7616216565b50505b82018360208201111561060557600080610602616216565b50505b803590602001918460018302840111640100000000831117156106305760008061062d616216565b50505b909192939192939050505061318c565b6040518082815260200191505060405180910390f35b34801561066b57600080610668616216565b50505b50610674613230565b6040518082815260200191505060405180910390f35b34801561069f5760008061069c616216565b50505b506106eb600480360360208110156106bf576000806106bc616216565b50505b81019080803573ffffffffffffffffffffffffffffffffffffffff16906020019092919050505061323d565b005b348015610702576000806106ff616216565b50505b5061079e600480360360208110156107225760008061071f616216565b50505b810190808035906020019064010000000081111561074857600080610745616216565b50505b82018360208201111561076357600080610760616216565b50505b8035906020019184602083028401116401000000008311171561078e5760008061078b616216565b50505b90919293919293905050506132a7565b005b3480156107b5576000806107b2616216565b50505b50610893600480360360208110156107d5576000806107d2616216565b50505b81019080803590602001906401000000008111156107fb576000806107f8616216565b50505b82018360208201111561081657600080610813616216565b50505b803590602001918460018302840111640100000000831117156108415760008061083e616216565b50505b91908080601f016020809104026020016040519081016040528093929190818152602001838380828437600081840152601f19601f820116905080830192505050505050509192919290505050613331565b6040518082815260200191505060405180910390f35b3480156108be576000806108bb616216565b50505b5061090a600480360360208110156108de576000806108db616216565b50505b81019080803573ffffffffffffffffffffffffffffffffffffffff16906020019092919050505061334c565b604051808273ffffffffffffffffffffffffffffffffffffffff16815260200191505060405180910390f35b610ad96004803603608081101561095557600080610952616216565b50505b81019080803590602001909291908035906020019064010000000081111561098557600080610982616216565b50505b8201836020820111156109a05760008061099d616216565b50505b803590602001918460018302840111640100000000831117156109cb576000806109c8616216565b50505b91908080601f016020809104026020016040519081016040528093929190818152602001838380828437600081840152601f19601f82011690508083019250505050505050919291929080359060200190640100000000811115610a3757600080610a34616216565b50505b820183602082011115610a5257600080610a4f616216565b50505b80359060200191846001830284011164010000000083111715610a7d57600080610a7a616216565b50505b91908080601f016020809104026020016040519081016040528093929190818152602001838380828437600081840152601f19601f820116905080830192505050505050509192919290803590602001909291905050506133db565b6040518082815260200191505060405180910390f35b348015610b0457600080610b01616216565b50505b50610b7c60048036036040811015610b2457600080610b21616216565b50505b81019080803573ffffffffffffffffffffffffffffffffffffffff16906020019092919080357effffffffffffffffffffffffffffffffffffffffffffffffffffffffffffff191690602001909291905050506137c8565b005b348015610b9357600080610b90616216565b50505b50610beb60048036036020811015610bb357600080610bb0616216565b50505b8101908080357effffffffffffffffffffffffffffffffffffffffffffffffffffffffffffff191690602001909291905050506137ee565b005b348015610c0257600080610bff616216565b50505b50610d0e60048036036040811015610c2257600080610c1f616216565b50505b8101908080359060200190640100000000811115610c4857600080610c45616216565b50505b820183602082011115610c6357600080610c60616216565b50505b80359060200191846020830284011164010000000083111715610c8e57600080610c8b616216565b50505b909192939192939080359060200190640100000000811115610cb857600080610cb5616216565b50505b820183602082011115610cd357600080610cd0616216565b50505b80359060200191846020830284011164010000000083111715610cfe57600080610cfb616216565b50505b9091929391929390505050613861565b005b610e2f60048036036080811015610d2f57600080610d2c616216565b50505b810190808035906020019092919080359060200190640100000000811115610d5f57600080610d5c616216565b50505b820183602082011115610d7a57600080610d77616216565b50505b80359060200191846001830284011164010000000083111715610da557600080610da2616216565b50505b909192939192939080359060200190640100000000811115610dcf57600080610dcc616216565b50505b820183602082011115610dea57600080610de7616216565b50505b80359060200191846001830284011164010000000083111715610e1557600080610e12616216565b50505b909192939192939080359060200190929190505050613924565b6040518082815260200191505060405180910390f35b348015610e5a57600080610e57616216565b50505b50610f8460048036036060811015610e7a57600080610e77616216565b50505b81019080803573ffffffffffffffffffffffffffffffffffffffff16906020019092919080357effffffffffffffffffffffffffffffffffffffffffffffffffffffffffffff1916906020019092919080359060200190640100000000811115610eec57600080610ee9616216565b50505b820183602082011115610f0757600080610f04616216565b50505b80359060200191846001830284011164010000000083111715610f3257600080610f2f616216565b50505b91908080601f016020809104026020016040519081016040528093929190818152602001838380828437600081840152601f19601f8201169050808301925050505050505091929192905050506139c6565b005b61110b60048036036080811015610fa557600080610fa2616216565b50505b810190808035906020019092919080359060200190640100000000811115610fd557600080610fd2616216565b50505b820183602082011115610ff057600080610fed616216565b50505b8035906020019184600183028401116401000000008311171561101b57600080611018616216565b50505b90919293919293908035906020019064010000000081111561104557600080611042616216565b50505b8201836020820111156110605760008061105d616216565b50505b8035906020019184600183028401116401000000008311171561108b57600080611088616216565b50505b9091929391929390803590602001906401000000008111156110b5576000806110b2616216565b50505b8201836020820111156110d0576000806110cd616216565b50505b803590602001918460018302840111640100000000831117156110fb576000806110f8616216565b50505b9091929391929390505050613a3b565b6040518082815260200191505060405180910390f35b34801561113657600080611133616216565b50505b506111826004803603602081101561115657600080611153616216565b50505b81019080803573ffffffffffffffffffffffffffffffffffffffff169060200190929190505050613b26565b60405180821515815260200191505060405180910390f35b3480156111af576000806111ac616216565b50505b50611255600480360360408110156111cf576000806111cc616216565b50505b8101908080359060200190929190803590602001906401000000008111156111ff576000806111fc616216565b50505b82018360208201111561121a57600080611217616216565b50505b8035906020019184600183028401116401000000008311171561124557600080611242616216565b50505b9091929391929390505050613b4d565b005b6114ac600480360360a081101561127657600080611273616216565b50505b8101908080359060200190929190803590602001906401000000008111156112a6576000806112a3616216565b50505b8201836020820111156112c1576000806112be616216565b50505b803590602001918460018302840111640100000000831117156112ec576000806112e9616216565b50505b91908080601f016020809104026020016040519081016040528093929190818152602001838380828437600081840152601f19601f8201169050808301925050505050505091929192908035906020019064010000000081111561135857600080611355616216565b50505b82018360208201111561137357600080611370616216565b50505b8035906020019184600183028401116401000000008311171561139e5760008061139b616216565b50505b91908080601f016020809104026020016040519081016040528093929190818152602001838380828437600081840152601f19601f8201169050808301925050505050505091929192908035906020019064010000000081111561140a57600080611407616216565b50505b82018360208201111561142557600080611422616216565b50505b803590602001918460018302840111640100000000831117156114505760008061144d616216565b50505b91908080601f016020809104026020016040519081016040528093929190818152602001838380828437600081840152601f19601f82011690508083019250505050505050919291929080359060200190929190505050613c16565b6040518082815260200191505060405180910390f35b3480156114d7576000806114d4616216565b50505b50611523600480360360208110156114f7576000806114f4616216565b50505b81019080803573ffffffffffffffffffffffffffffffffffffffff169060200190929190505050614071565b005b6116c86004803603608081101561154457600080611541616216565b50505b81019080803590602001909291908035906020019064010000000081111561157457600080611571616216565b50505b82018360208201111561158f5760008061158c616216565b50505b803590602001918460018302840111640100000000831117156115ba576000806115b7616216565b50505b91908080601f016020809104026020016040519081016040528093929190818152602001838380828437600081840152601f19601f8201169050808301925050505050505091929192908035906020019064010000000081111561162657600080611623616216565b50505b8201836020820111156116415760008061163e616216565b50505b8035906020019184600183028401116401000000008311171561166c57600080611669616216565b50505b91908080601f016020809104026020016040519081016040528093929190818152602001838380828437600081840152601f19601f820116905080830192505050505050509192919290803590602001909291905050506140cd565b6040518082815260200191505060405180910390f35b6117e9600480360360408110156116fd576000806116fa616216565b50505b810190808035906020019064010000000081111561172357600080611720616216565b50505b82018360208201111561173e5760008061173b616216565b50505b8035906020019184600183028401116401000000008311171561176957600080611766616216565b50505b90919293919293908035906020019064010000000081111561179357600080611790616216565b50505b8201836020820111156117ae576000806117ab616216565b50505b803590602001918460018302840111640100000000831117156117d9576000806117d6616216565b50505b90919293919293905050506144ba565b6040518082815260200191505060405180910390f35b6119146004803603606081101561181e5760008061181b616216565b50505b81019080803590602001909291908035906020019064010000000081111561184e5760008061184b616216565b50505b82018360208201111561186957600080611866616216565b50505b8035906020019184600183028401116401000000008311171561189457600080611891616216565b50505b9091929391929390803590602001906401000000008111156118be576000806118bb616216565b50505b8201836020820111156118d9576000806118d6616216565b50505b8035906020019184600183028401116401000000008311171561190457600080611901616216565b50505b909192939192939050505061455e565b6040518082815260200191505060405180910390f35b611ab9600480360360a081101561194957600080611946616216565b50505b81019080803590602001909291908035906020019064010000000081111561197957600080611976616216565b50505b82018360208201111561199457600080611991616216565b50505b803590602001918460018302840111640100000000831117156119bf576000806119bc616216565b50505b9091929391929390803590602001906401000000008111156119e9576000806119e6616216565b50505b820183602082011115611a0457600080611a01616216565b50505b80359060200191846001830284011164010000000083111715611a2f57600080611a2c616216565b50505b909192939192939080359060200190640100000000811115611a5957600080611a56616216565b50505b820183602082011115611a7457600080611a71616216565b50505b80359060200191846001830284011164010000000083111715611a9f57600080611a9c616216565b50505b909192939192939080359060200190929190505050614602565b6040518082815260200191505060405180910390f35b348015611ae457600080611ae1616216565b50505b50611b3060048036036020811015611b0457600080611b01616216565b50505b81019080803573ffffffffffffffffffffffffffffffffffffffff1690602001909291905050506146eb565b005b611c3d60048036036040811015611b5157600080611b4e616216565b50505b8101908080359060200190640100000000811115611b7757600080611b74616216565b50505b820183602082011115611b9257600080611b8f616216565b50505b80359060200191846001830284011164010000000083111715611bbd57600080611bba616216565b50505b909192939192939080359060200190640100000000811115611be757600080611be4616216565b50505b820183602082011115611c0257600080611bff616216565b50505b80359060200191846001830284011164010000000083111715611c2d57600080611c2a616216565b50505b9091929391929390505050614747565b6040518082815260200191505060405180910390f35b348015611c6857600080611c65616216565b50505b50611d0e60048036036040811015611c8857600080611c85616216565b50505b8101908080359060200190640100000000811115611cae57600080611cab616216565b50505b820183602082011115611cc957600080611cc6616216565b50505b80359060200191846001830284011164010000000083111715611cf457600080611cf1616216565b50505b9091929391929390803590602001909291905050506147eb565b005b348015611d2557600080611d22616216565b50505b50611d2e614843565b6040518082815260200191505060405180910390f35b611fd2600480360360c0811015611d6357600080611d60616216565b50505b810190808035906020019092919080359060200190640100000000811115611d9357600080611d90616216565b50505b820183602082011115611dae57600080611dab616216565b50505b80359060200191846001830284011164010000000083111715611dd957600080611dd6616216565b50505b91908080601f016020809104026020016040519081016040528093929190818152602001838380828437600081840152601f19601f82011690508083019250505050505050919291929080359060200190640100000000811115611e4557600080611e42616216565b50505b820183602082011115611e6057600080611e5d616216565b50505b80359060200191846001830284011164010000000083111715611e8b57600080611e88616216565b50505b91908080601f016020809104026020016040519081016040528093929190818152602001838380828437600081840152601f19601f82011690508083019250505050505050919291929080359060200190640100000000811115611ef757600080611ef4616216565b50505b820183602082011115611f1257600080611f0f616216565b50505b80359060200191846001830284011164010000000083111715611f3d57600080611f3a616216565b50505b91908080601f016020809104026020016040519081016040528093929190818152602001838380828437600081840152601f19601f82011690508083019250505050505050919291929080358060601c9060401c63ffffffff1677ffffffffffffffffffffffffffffffffffffffffffffffff1690916020019190939291909392919080359060200190929190505050614900565b6040518082815260200191505060405180910390f35b6120fd6004803603606081101561200757600080612004616216565b50505b81019080803590602001909291908035906020019064010000000081111561203757600080612034616216565b50505b8201836020820111156120525760008061204f616216565b50505b8035906020019184600183028401116401000000008311171561207d5760008061207a616216565b50505b9091929391929390803590602001906401000000008111156120a7576000806120a4616216565b50505b8201836020820111156120c2576000806120bf616216565b50505b803590602001918460018302840111640100000000831117156120ed576000806120ea616216565b50505b9091929391929390505050614db5565b6040518082815260200191505060405180910390f35b34801561212857600080612125616216565b50505b5061223c6004803603606081101561214857600080612145616216565b50505b810190808035906020019064010000000081111561216e5760008061216b616216565b50505b82018360208201111561218957600080612186616216565b50505b803590602001918460018302840111640100000000831117156121b4576000806121b1616216565b50505b91908080601f016020809104026020016040519081016040528093929190818152602001838380828437600081840152601f19601f82011690508083019250505050505050919291929080357effffffffffffffffffffffffffffffffffffffffffffffffffffffffffffff1916906020019092919080359060200190929190505050614e59565b005b34801561225357600080612250616216565b50505b506122896004803603602081101561227357600080612270616216565b50505b8101908080359060200190929190505050614f6a565b005b6123aa600480360360808110156122aa576000806122a7616216565b50505b8101908080359060200190929190803590602001906401000000008111156122da576000806122d7616216565b50505b8201836020820111156122f5576000806122f2616216565b50505b803590602001918460018302840111640100000000831117156123205760008061231d616216565b50505b90919293919293908035906020019064010000000081111561234a57600080612347616216565b50505b82018360208201111561236557600080612362616216565b50505b803590602001918460018302840111640100000000831117156123905760008061238d616216565b50505b909192939192939080359060200190929190505050614f85565b6040518082815260200191505060405180910390f35b6124df600480360360808110156123df576000806123dc616216565b50505b81019080803590602001909291908035906020019064010000000081111561240f5760008061240c616216565b50505b82018360208201111561242a57600080612427616216565b50505b8035906020019184600183028401116401000000008311171561245557600080612452616216565b50505b90919293919293908035906020019064010000000081111561247f5760008061247c616216565b50505b82018360208201111561249a57600080612497616216565b50505b803590602001918460018302840111640100000000831117156124c5576000806124c2616216565b50505b909192939192939080359060200190929190505050615027565b6040518082815260200191505060405180910390f35b34801561250a57600080612507616216565b50505b506125406004803603602081101561252a57600080612527616216565b50505b81019080803590602001909291905050506150c9565b005b34801561255757600080612554616216565b50505b506126636004803603604081101561257757600080612574616216565b50505b810190808035906020019064010000000081111561259d5760008061259a616216565b50505b8201836020820111156125b8576000806125b5616216565b50505b803590602001918460208302840111640100000000831117156125e3576000806125e0616216565b50505b90919293919293908035906020019064010000000081111561260d5760008061260a616216565b50505b82018360208201111561262857600080612625616216565b50505b8035906020019184602083028401116401000000008311171561265357600080612650616216565b50505b9091929391929390505050615121565b005b34801561267a57600080612677616216565b50505b506126c66004803603602081101561269a57600080612697616216565b50505b81019080803573ffffffffffffffffffffffffffffffffffffffff1690602001909291905050506151d2565b60405180827effffffffffffffffffffffffffffffffffffffffffffffffffffffffffffff1916815260200191505060405180910390f35b34801561271357600080612710616216565b50505b5061281f6004803603604081101561273357600080612730616216565b50505b810190808035906020019064010000000081111561275957600080612756616216565b50505b82018360208201111561277457600080612771616216565b50505b8035906020019184602083028401116401000000008311171561279f5760008061279c616216565b50505b9091929391929390803590602001906401000000008111156127c9576000806127c6616216565b50505b8201836020820111156127e4576000806127e1616216565b50505b8035906020019184602083028401116401000000008311171561280f5760008061280c616216565b50505b90919293919293905050506151f9565b005b6129fd600480360360a08110156128405760008061283d616216565b50505b8101908080359060200190929190803590602001906401000000008111156128705760008061286d616216565b50505b82018360208201111561288b57600080612888616216565b50505b803590602001918460018302840111640100000000831117156128b6576000806128b3616216565b50505b91908080601f016020809104026020016040519081016040528093929190818152602001838380828437600081840152601f19601f820116905080830192505050505050509192919290803590602001906401000000008111156129225760008061291f616216565b50505b82018360208201111561293d5760008061293a616216565b50505b8035906020019184600183028401116401000000008311171561296857600080612965616216565b50505b91908080601f016020809104026020016040519081016040528093929190818152602001838380828437600081840152601f19601f82011690508083019250505050505050919291929080358060601c9060401c63ffffffff1677ffffffffffffffffffffffffffffffffffffffffffffffff16909160200191909392919093929190803590602001909291905050506152c8565b6040518082815260200191505060405180910390f35b348015612a2857600080612a25616216565b50505b50612a5e60048036036020811015612a4857600080612a45616216565b50505b810190808035906020019092919050505061570f565b005b348015612a7557600080612a72616216565b50505b50612aab60048036036020811015612a9557600080612a92616216565b50505b81019080803590602001909291905050506157d6565b6040518082815260200191505060405180910390f35b612c3c60048036036060811015612ae057600080612add616216565b50505b8101908080359060200190640100000000811115612b0657600080612b03616216565b50505b820183602082011115612b2157600080612b1e616216565b50505b80359060200191846001830284011164010000000083111715612b4c57600080612b49616216565b50505b909192939192939080359060200190640100000000811115612b7657600080612b73616216565b50505b820183602082011115612b9157600080612b8e616216565b50505b80359060200191846001830284011164010000000083111715612bbc57600080612bb9616216565b50505b909192939192939080359060200190640100000000811115612be657600080612be3616216565b50505b820183602082011115612c0157600080612bfe616216565b50505b80359060200191846001830284011164010000000083111715612c2c57600080612c29616216565b50505b9091929391929390505050615811565b6040518082815260200191505060405180910390f35b348015612c6757600080612c64616216565b50505b50612cbf60048036036040811015612c8757600080612c84616216565b50505b81019080803573ffffffffffffffffffffffffffffffffffffffff1690602001909291908035151590602001909291905050506158fc565b005b612e9d600480360360a0811015612ce057600080612cdd616216565b50505b810190808035906020019092919080359060200190640100000000811115612d1057600080612d0d616216565b50505b820183602082011115612d2b57600080612d28616216565b50505b80359060200191846001830284011164010000000083111715612d5657600080612d53616216565b50505b91908080601f016020809104026020016040519081016040528093929190818152602001838380828437600081840152601f19601f82011690508083019250505050505050919291929080359060200190640100000000811115612dc257600080612dbf616216565b50505b820183602082011115612ddd57600080612dda616216565b50505b80359060200191846001830284011164010000000083111715612e0857600080612e05616216565b50505b91908080601f016020809104026020016040519081016040528093929190818152602001838380828437600081840152601f19601f82011690508083019250505050505050919291929080358060601c9060401c63ffffffff1677ffffffffffffffffffffffffffffffffffffffffffffffff1690916020019190939291909392919080359060200190929190505050615a4a565b6040518082815260200191505060405180910390f35b612ebb615e91565b60008173ffffffffffffffffffffffffffffffffffffffff166370a082315a63996d79a5598160e01b8152602081600483336000905af158600e01573d6000803e3d6000fd5b3d6001141558600a015760016000f35b8051925060005b6040811015612f3257600081830152602081019050612f18565b5050506040518263ffffffff1660e01b8152600401808273ffffffffffffffffffffffffffffffffffffffff1681526020019150506020604051808303818680612f7a616284565b158015612f8f57600080612f8c616216565b50505b505a612f996162e7565b5050505050158015612fb8573d6000803e3d6000612fb5616216565b50505b505050506040513d6020811015612fd757600080612fd4616216565b50505b810190808051906020019092919050505090508173ffffffffffffffffffffffffffffffffffffffff1663a9059cbb84836040518363ffffffff1660e01b8152600401808373ffffffffffffffffffffffffffffffffffffffff1681526020018281526020019250505060206040518083038160008780613056616284565b15801561306b57600080613068616216565b50505b505a6130756163e7565b505050505050158015613095573d6000803e3d6000613092616216565b50505b505050506040513d60208110156130b4576000806130b1616216565b50505b810190808051906020019092919050505050505050565b60006131648686868080601f016020809104026020016040519081016040528093929190818152602001838380828437600081840152601f19601f8201169050808301925050505050505085858080601f016020809104026020016040519081016040528093929190818152602001838380828437600081840152601f19601f8201169050808301925050505050505062030d406133db565b905095945050505050565b600061318483835a61317f6164e7565b615f05565b905092915050565b6000613226600086868080601f016020809104026020016040519081016040528093929190818152602001838380828437600081840152601f19601f8201169050808301925050505050505085858080601f016020809104026020016040519081016040528093929190818152602001838380828437600081840152601f19601f8201169050808301925050505050505062030d406133db565b9050949350505050565b600861323a616544565b81565b613245615e91565b600160008273ffffffffffffffffffffffffffffffffffffffff1673ffffffffffffffffffffffffffffffffffffffff16815260200190815260200160002060006101000a81613293616544565b9060ff021916906132a26165a7565b505050565b6132af615e91565b600c60006132bd919061660c565b60005b8282905081101561332c57600c8383838181106132d957fe5b9050602002013590806001816132ed616544565b0180826132f86165a7565b505080915050600190039060005260206000200160009091909190915061331d6165a7565b505080806001019150506132c0565b505050565b6000613345825a6133406164e7565b616159565b9050919050565b60008060f81b600160008473ffffffffffffffffffffffffffffffffffffffff1673ffffffffffffffffffffffffffffffffffffffff16815260200190815260200160002060009061339c616544565b906101000a900460f81b7effffffffffffffffffffffffffffffffffffffffffffffffffffffffffffff1916146133d5578190506133d6565b5b919050565b60006133e78483616171565b50624f1a005a6133f561663d565b0185118061340a57505a61340761669a565b82115b1561341d5760008061341a616216565b50505b5a63996d79a5598160e01b8152602081600483336000905af158600e01573d6000803e3d6000fd5b3d6001141558600a015760016000f35b8051925060005b60408110156134765760008183015260208101905061345c565b5050505a6134826164e7565b6000805a61348e6164e7565b73ffffffffffffffffffffffffffffffffffffffff1673ffffffffffffffffffffffffffffffffffffffff1681526020019081526020016000206134d0616544565b604051602001808473ffffffffffffffffffffffffffffffffffffffff1660601b81526014018373ffffffffffffffffffffffffffffffffffffffff1660601b815260140182815260200193505050506040516020818303038152906040528051906020012090506000805a6135446164e7565b73ffffffffffffffffffffffffffffffffffffffff1673ffffffffffffffffffffffffffffffffffffffff168152602001908152602001600020600081613589616544565b8092919060010191905061359b6165a7565b5050507fb76d0edd90c6a07aa3ff7a222d7f5933e29c6acc660c059c97837f05c4ca1a845a6135c86164e7565b8287878787600660005a6135da6164e7565b73ffffffffffffffffffffffffffffffffffffffff1673ffffffffffffffffffffffffffffffffffffffff16815260200190815260200160002060009061361f616544565b906101000a900460f81b600760005a6136366164e7565b73ffffffffffffffffffffffffffffffffffffffff1673ffffffffffffffffffffffffffffffffffffffff168152602001908152602001600020613678616544565b604051808973ffffffffffffffffffffffffffffffffffffffff1681526020018881526020018781526020018060200180602001868152602001857effffffffffffffffffffffffffffffffffffffffffffffffffffffffffffff19168152602001848152602001838103835288818151815260200191508051906020019080838360005b838110156137185780820151818401526020810190506136fd565b50505050905090810190601f1680156137455780820380516001836020036101000a031916815260200191505b50838103825287818151815260200191508051906020019080838360005b8381101561377e578082015181840152602081019050613763565b50505050905090810190601f1680156137ab5780820380516001836020036101000a031916815260200191505b509a505050505050505050505060405180910390a1949350505050565b6137d0615e91565b6137ea8282604051806020016040528060008152506139c6565b5050565b80600660005a6137fc6164e7565b73ffffffffffffffffffffffffffffffffffffffff1673ffffffffffffffffffffffffffffffffffffffff16815260200190815260200160002060006101000a81613845616544565b8160ff021916908360f81c02179061385b6165a7565b50505050565b613869615e91565b60005b8484905081101561391d57600b85858381811061388557fe5b905060200201359080600181613899616544565b0180826138a46165a7565b50508091505060019003906000526020600020016000909190919091506138c96165a7565b50508282828181106138d757fe5b90506020020135600a60008787858181106138ee57fe5b905060200201358152602001908152602001600020819061390d6165a7565b505050808060010191505061386c565b5050505050565b60006139ba8787878080601f016020809104026020016040519081016040528093929190818152602001838380828437600081840152601f19601f8201169050808301925050505050505086868080601f016020809104026020016040519081016040528093929190818152602001838380828437600081840152601f19601f82011690508083019250505050505050856133db565b90509695505050505050565b6139ce615e91565b81600160008573ffffffffffffffffffffffffffffffffffffffff1673ffffffffffffffffffffffffffffffffffffffff16815260200190815260200160002060006101000a81613a1d616544565b8160ff021916908360f81c021790613a336165a7565b505050505050565b6000613b198888888080601f016020809104026020016040519081016040528093929190818152602001838380828437600081840152601f19601f8201169050808301925050505050505087878080601f016020809104026020016040519081016040528093929190818152602001838380828437600081840152601f19601f8201169050808301925050505050505086868080601f016020809104026020016040519081016040528093929190818152602001838380828437600081840152601f19601f8201169050808301925050505050505062030d40613c16565b9050979650505050505050565b600260205280600052604060002060009150613b40616544565b906101000a900460ff1681565b613b55615e91565b8260088190613b626165a7565b50505060005b600b80613b73616544565b9050811015613c1057600a6000600b8381613b8c616544565b8110613b9457fe5b90600052602060002001613ba6616544565b8152602001908152602001600020613bbc616544565b840260096000600b8481613bce616544565b8110613bd657fe5b90600052602060002001613be8616544565b81526020019081526020016000208190613c006165a7565b5050508080600101915050613b68565b50505050565b6000613c228583616171565b50624f1a005a613c3061663d565b01861180613c4557505a613c4261669a565b82115b15613c5857600080613c55616216565b50505b5a63996d79a5598160e01b8152602081600483336000905af158600e01573d6000803e3d6000fd5b3d6001141558600a015760016000f35b8051925060005b6040811015613cb157600081830152602081019050613c97565b5050505a613cbd6164e7565b6000805a613cc96164e7565b73ffffffffffffffffffffffffffffffffffffffff1673ffffffffffffffffffffffffffffffffffffffff168152602001908152602001600020613d0b616544565b604051602001808473ffffffffffffffffffffffffffffffffffffffff1660601b81526014018373ffffffffffffffffffffffffffffffffffffffff1660601b815260140182815260200193505050506040516020818303038152906040528051906020012090506000805a613d7f6164e7565b73ffffffffffffffffffffffffffffffffffffffff1673ffffffffffffffffffffffffffffffffffffffff168152602001908152602001600020600081613dc4616544565b80929190600101919050613dd66165a7565b5050507faf30e4d66b2f1f23e63ef4591058a897f67e6867233e33ca3508b982dcc4129b5a613e036164e7565b828888888888600660005a613e166164e7565b73ffffffffffffffffffffffffffffffffffffffff1673ffffffffffffffffffffffffffffffffffffffff168152602001908152602001600020600090613e5b616544565b906101000a900460f81b600760005a613e726164e7565b73ffffffffffffffffffffffffffffffffffffffff1673ffffffffffffffffffffffffffffffffffffffff168152602001908152602001600020613eb4616544565b604051808a73ffffffffffffffffffffffffffffffffffffffff168152602001898152602001888152602001806020018060200180602001878152602001867effffffffffffffffffffffffffffffffffffffffffffffffffffffffffffff1916815260200185815260200184810384528a818151815260200191508051906020019080838360005b83811015613f58578082015181840152602081019050613f3d565b50505050905090810190601f168015613f855780820380516001836020036101000a031916815260200191505b50848103835289818151815260200191508051906020019080838360005b83811015613fbe578082015181840152602081019050613fa3565b50505050905090810190601f168015613feb5780820380516001836020036101000a031916815260200191505b50848103825288818151815260200191508051906020019080838360005b83811015614024578082015181840152602081019050614009565b50505050905090810190601f1680156140515780820380516001836020036101000a031916815260200191505b509c5050505050505050505050505060405180910390a195945050505050565b614079615e91565b80600460006101000a8161408b616544565b8173ffffffffffffffffffffffffffffffffffffffff021916908373ffffffffffffffffffffffffffffffffffffffff160217906140c76165a7565b50505050565b60006140d98483616171565b50624f1a005a6140e761663d565b018511806140fc57505a6140f961669a565b82115b1561410f5760008061410c616216565b50505b5a63996d79a5598160e01b8152602081600483336000905af158600e01573d6000803e3d6000fd5b3d6001141558600a015760016000f35b8051925060005b60408110156141685760008183015260208101905061414e565b5050505a6141746164e7565b6000805a6141806164e7565b73ffffffffffffffffffffffffffffffffffffffff1673ffffffffffffffffffffffffffffffffffffffff1681526020019081526020016000206141c2616544565b604051602001808473ffffffffffffffffffffffffffffffffffffffff1660601b81526014018373ffffffffffffffffffffffffffffffffffffffff1660601b815260140182815260200193505050506040516020818303038152906040528051906020012090506000805a6142366164e7565b73ffffffffffffffffffffffffffffffffffffffff1673ffffffffffffffffffffffffffffffffffffffff16815260200190815260200160002060008161427b616544565b8092919060010191905061428d6165a7565b5050507f3af7d71c651d8670228b02a0b636ffa73a7f759ef99ff9c024bc3b044a7244385a6142ba6164e7565b8287878787600660005a6142cc6164e7565b73ffffffffffffffffffffffffffffffffffffffff1673ffffffffffffffffffffffffffffffffffffffff168152602001908152602001600020600090614311616544565b906101000a900460f81b600760005a6143286164e7565b73ffffffffffffffffffffffffffffffffffffffff1673ffffffffffffffffffffffffffffffffffffffff16815260200190815260200160002061436a616544565b604051808973ffffffffffffffffffffffffffffffffffffffff1681526020018881526020018781526020018060200180602001868152602001857effffffffffffffffffffffffffffffffffffffffffffffffffffffffffffff19168152602001848152602001838103835288818151815260200191508051906020019080838360005b8381101561440a5780820151818401526020810190506143ef565b50505050905090810190601f1680156144375780820380516001836020036101000a031916815260200191505b50838103825287818151815260200191508051906020019080838360005b83811015614470578082015181840152602081019050614455565b50505050905090810190601f16801561449d5780820380516001836020036101000a031916815260200191505b509a505050505050505050505060405180910390a1949350505050565b6000614554600086868080601f016020809104026020016040519081016040528093929190818152602001838380828437600081840152601f19601f8201169050808301925050505050505085858080601f016020809104026020016040519081016040528093929190818152602001838380828437600081840152601f19601f8201169050808301925050505050505062030d406133db565b9050949350505050565b60006145f78686868080601f016020809104026020016040519081016040528093929190818152602001838380828437600081840152601f19601f8201169050808301925050505050505085858080601f016020809104026020016040519081016040528093929190818152602001838380828437600081840152601f19601f8201169050808301925050505050505062030d406140cd565b905095945050505050565b60006146dd8989898080601f016020809104026020016040519081016040528093929190818152602001838380828437600081840152601f19601f8201169050808301925050505050505088888080601f016020809104026020016040519081016040528093929190818152602001838380828437600081840152601f19601f8201169050808301925050505050505087878080601f016020809104026020016040519081016040528093929190818152602001838380828437600081840152601f19601f8201169050808301925050505050505086613c16565b905098975050505050505050565b6146f3615e91565b80600360006101000a81614705616544565b8173ffffffffffffffffffffffffffffffffffffffff021916908373ffffffffffffffffffffffffffffffffffffffff160217906147416165a7565b50505050565b60006147e1600086868080601f016020809104026020016040519081016040528093929190818152602001838380828437600081840152601f19601f8201169050808301925050505050505085858080601f016020809104026020016040519081016040528093929190818152602001838380828437600081840152601f19601f8201169050808301925050505050505062030d406140cd565b9050949350505050565b61483e83838080601f016020809104026020016040519081016040528093929190818152602001838380828437600081840152601f19601f82011690508083019250505050505050600060f81b83614e59565b505050565b600080600c80614851616544565b90506000805a61485f6164e7565b73ffffffffffffffffffffffffffffffffffffffff1673ffffffffffffffffffffffffffffffffffffffff1681526020019081526020016000206148a1616544565b604051602001808281526020019150506040516020818303038152906040528051906020012060001c816148d157fe5b069050600c81816148e0616544565b81106148e857fe5b906000526020600020016148fa616544565b91505090565b600061490c8783616171565b50624f1a005a61491a61663d565b0188118061492f57505a61492c61669a565b82115b8061496e57505a61493e6164e7565b73ffffffffffffffffffffffffffffffffffffffff168473ffffffffffffffffffffffffffffffffffffffff1614155b156149815760008061497e616216565b50505b5a63996d79a5598160e01b8152602081600483336000905af158600e01573d6000803e3d6000fd5b3d6001141558600a015760016000f35b8051925060005b60408110156149da576000818301526020810190506149c0565b5050505a6149e66164e7565b6000805a6149f26164e7565b73ffffffffffffffffffffffffffffffffffffffff1673ffffffffffffffffffffffffffffffffffffffff168152602001908152602001600020614a34616544565b604051602001808473ffffffffffffffffffffffffffffffffffffffff1660601b81526014018373ffffffffffffffffffffffffffffffffffffffff1660601b815260140182815260200193505050506040516020818303038152906040528051906020012090506000805a614aa86164e7565b73ffffffffffffffffffffffffffffffffffffffff1673ffffffffffffffffffffffffffffffffffffffff168152602001908152602001600020600081614aed616544565b80929190600101919050614aff6165a7565b5050507fcc57f89a6a20799d672e6569d224340220a0891ad6efa3039e7728f0c88854b35a614b2c6164e7565b828a8a8a8a8a8a8a600660005a614b416164e7565b73ffffffffffffffffffffffffffffffffffffffff1673ffffffffffffffffffffffffffffffffffffffff168152602001908152602001600020600090614b86616544565b906101000a900460f81b600760005a614b9d6164e7565b73ffffffffffffffffffffffffffffffffffffffff1673ffffffffffffffffffffffffffffffffffffffff168152602001908152602001600020614bdf616544565b604051808c73ffffffffffffffffffffffffffffffffffffffff1681526020018b81526020018a8152602001806020018060200180602001898963ffffffff169060201b1760401b8152602001878152602001867effffffffffffffffffffffffffffffffffffffffffffffffffffffffffffff1916815260200185815260200184810384528c818151815260200191508051906020019080838360005b83811015614c98578082015181840152602081019050614c7d565b50505050905090810190601f168015614cc55780820380516001836020036101000a031916815260200191505b5084810383528b818151815260200191508051906020019080838360005b83811015614cfe578082015181840152602081019050614ce3565b50505050905090810190601f168015614d2b5780820380516001836020036101000a031916815260200191505b5084810382528a818151815260200191508051906020019080838360005b83811015614d64578082015181840152602081019050614d49565b50505050905090810190601f168015614d915780820380516001836020036101000a031916815260200191505b509e50505050505050505050505050505060405180910390a1979650505050505050565b6000614e4e8686868080601f016020809104026020016040519081016040528093929190818152602001838380828437600081840152601f19601f8201169050808301925050505050505085858080601f016020809104026020016040519081016040528093929190818152602001838380828437600081840152601f19601f8201169050808301925050505050505062030d406133db565b905095945050505050565b614e61615e91565b600083836040516020018083805190602001908083835b60208310614e9b5780518252602082019150602081019050602083039250614e78565b6001836020036101000a038019825116818451168082178552505050505050905001827effffffffffffffffffffffffffffffffffffffffffffffffffffffffffffff1916815260010192505050604051602081830303815290604052805190602001209050600b819080600181614f11616544565b018082614f1c6165a7565b5050809150506001900390600052602060002001600090919091909150614f416165a7565b505081600a60008381526020019081526020016000208190614f616165a7565b50505050505050565b614f72615e91565b8060058190614f7f6165a7565b50505050565b600061501b8787878080601f016020809104026020016040519081016040528093929190818152602001838380828437600081840152601f19601f8201169050808301925050505050505086868080601f016020809104026020016040519081016040528093929190818152602001838380828437600081840152601f19601f82011690508083019250505050505050856133db565b90509695505050505050565b60006150bd8787878080601f016020809104026020016040519081016040528093929190818152602001838380828437600081840152601f19601f8201169050808301925050505050505086868080601f016020809104026020016040519081016040528093929190818152602001838380828437600081840152601f19601f82011690508083019250505050505050856140cd565b90509695505050505050565b80600760005a6150d76164e7565b73ffffffffffffffffffffffffffffffffffffffff1673ffffffffffffffffffffffffffffffffffffffff168152602001908152602001600020819061511b6165a7565b50505050565b615129615e91565b60005b828290508110156151cb5784848281811061514357fe5b905060200201356007600085858581811061515a57fe5b9050602002013573ffffffffffffffffffffffffffffffffffffffff1673ffffffffffffffffffffffffffffffffffffffff1673ffffffffffffffffffffffffffffffffffffffff16815260200190815260200160002081906151bb6165a7565b505050808060010191505061512c565b5050505050565b6001602052806000526040600020600091506151ec616544565b906101000a900460f81b81565b615201615e91565b60005b828290508110156152c15784848281811061521b57fe5b9050602002013560f81b6006600085858581811061523557fe5b9050602002013573ffffffffffffffffffffffffffffffffffffffff1673ffffffffffffffffffffffffffffffffffffffff1673ffffffffffffffffffffffffffffffffffffffff16815260200190815260200160002060006101000a8161529b616544565b8160ff021916908360f81c0217906152b16165a7565b5050508080600101915050615204565b5050505050565b60006152d48683616171565b50624f1a005a6152e261663d565b018711806152f757505a6152f461669a565b82115b8061533657505a6153066164e7565b73ffffffffffffffffffffffffffffffffffffffff168473ffffffffffffffffffffffffffffffffffffffff1614155b1561534957600080615346616216565b50505b5a63996d79a5598160e01b8152602081600483336000905af158600e01573d6000803e3d6000fd5b3d6001141558600a015760016000f35b8051925060005b60408110156153a257600081830152602081019050615388565b5050505a6153ae6164e7565b6000805a6153ba6164e7565b73ffffffffffffffffffffffffffffffffffffffff1673ffffffffffffffffffffffffffffffffffffffff1681526020019081526020016000206153fc616544565b604051602001808473ffffffffffffffffffffffffffffffffffffffff1660601b81526014018373ffffffffffffffffffffffffffffffffffffffff1660601b815260140182815260200193505050506040516020818303038152906040528051906020012090506000805a6154706164e7565b73ffffffffffffffffffffffffffffffffffffffff1673ffffffffffffffffffffffffffffffffffffffff1681526020019081526020016000206000816154b5616544565b809291906001019190506154c76165a7565b5050507f5051eab4e301cef16e893db3c7a192f8cbf7bb44e1a92b928665c66170930a395a6154f46164e7565b82898989898989600660005a6155086164e7565b73ffffffffffffffffffffffffffffffffffffffff1673ffffffffffffffffffffffffffffffffffffffff16815260200190815260200160002060009061554d616544565b906101000a900460f81b600760005a6155646164e7565b73ffffffffffffffffffffffffffffffffffffffff1673ffffffffffffffffffffffffffffffffffffffff1681526020019081526020016000206155a6616544565b604051808b73ffffffffffffffffffffffffffffffffffffffff1681526020018a81526020018981526020018060200180602001888863ffffffff169060201b1760401b8152602001868152602001857effffffffffffffffffffffffffffffffffffffffffffffffffffffffffffff1916815260200184815260200183810383528a818151815260200191508051906020019080838360005b8381101561565b578082015181840152602081019050615640565b50505050905090810190601f1680156156885780820380516001836020036101000a031916815260200191505b50838103825289818151815260200191508051906020019080838360005b838110156156c15780820151818401526020810190506156a6565b50505050905090810190601f1680156156ee5780820380516001836020036101000a031916815260200191505b509c5050505050505050505050505060405180910390a19695505050505050565b615717615e91565b80600881906157246165a7565b50505060005b600b80615735616544565b90508110156157d257600a6000600b838161574e616544565b811061575657fe5b90600052602060002001615768616544565b815260200190815260200160002061577e616544565b820260096000600b8481615790616544565b811061579857fe5b906000526020600020016157aa616544565b815260200190815260200160002081906157c26165a7565b505050808060010191505061572a565b5050565b600c81816157e2616544565b81106157f6576000806157f3616216565b50505b9060005260206000200160009150905061580e616544565b81565b60006158f0600088888080601f016020809104026020016040519081016040528093929190818152602001838380828437600081840152601f19601f8201169050808301925050505050505087878080601f016020809104026020016040519081016040528093929190818152602001838380828437600081840152601f19601f8201169050808301925050505050505086868080601f016020809104026020016040519081016040528093929190818152602001838380828437600081840152601f19601f8201169050808301925050505050505062030d40613c16565b90509695505050505050565b6004600090615909616544565b906101000a900473ffffffffffffffffffffffffffffffffffffffff1673ffffffffffffffffffffffffffffffffffffffff165a6159456164e7565b73ffffffffffffffffffffffffffffffffffffffff161461596e5760008061596b616216565b50505b80600260008473ffffffffffffffffffffffffffffffffffffffff1673ffffffffffffffffffffffffffffffffffffffff16815260200190815260200160002060006101000a816159bd616544565b8160ff021916908315150217906159d26165a7565b5050508015158273ffffffffffffffffffffffffffffffffffffffff167f84feab93d65c19f28e91b26f8245938bf3a97dab7b8dafe3c8b028954e9ac9348484604051808373ffffffffffffffffffffffffffffffffffffffff16815260200182151581526020019250505060405180910390a35050565b6000615a568683616171565b50624f1a005a615a6461663d565b01871180615a7957505a615a7661669a565b82115b80615ab857505a615a886164e7565b73ffffffffffffffffffffffffffffffffffffffff168473ffffffffffffffffffffffffffffffffffffffff1614155b15615acb57600080615ac8616216565b50505b5a63996d79a5598160e01b8152602081600483336000905af158600e01573d6000803e3d6000fd5b3d6001141558600a015760016000f35b8051925060005b6040811015615b2457600081830152602081019050615b0a565b5050505a615b306164e7565b6000805a615b3c6164e7565b73ffffffffffffffffffffffffffffffffffffffff1673ffffffffffffffffffffffffffffffffffffffff168152602001908152602001600020615b7e616544565b604051602001808473ffffffffffffffffffffffffffffffffffffffff1660601b81526014018373ffffffffffffffffffffffffffffffffffffffff1660601b815260140182815260200193505050506040516020818303038152906040528051906020012090506000805a615bf26164e7565b73ffffffffffffffffffffffffffffffffffffffff1673ffffffffffffffffffffffffffffffffffffffff168152602001908152602001600020600081615c37616544565b80929190600101919050615c496165a7565b5050507f90552fb8e54d9a2aa4212413b16aa948c66cab32c9fe727ff74be1850bb0a8be5a615c766164e7565b82898989898989600660005a615c8a6164e7565b73ffffffffffffffffffffffffffffffffffffffff1673ffffffffffffffffffffffffffffffffffffffff168152602001908152602001600020600090615ccf616544565b906101000a900460f81b600760005a615ce66164e7565b73ffffffffffffffffffffffffffffffffffffffff1673ffffffffffffffffffffffffffffffffffffffff168152602001908152602001600020615d28616544565b604051808b73ffffffffffffffffffffffffffffffffffffffff1681526020018a81526020018981526020018060200180602001888863ffffffff169060201b1760401b8152602001868152602001857effffffffffffffffffffffffffffffffffffffffffffffffffffffffffffff1916815260200184815260200183810383528a818151815260200191508051906020019080838360005b83811015615ddd578082015181840152602081019050615dc2565b50505050905090810190601f168015615e0a5780820380516001836020036101000a031916815260200191505b50838103825289818151815260200191508051906020019080838360005b83811015615e43578082015181840152602081019050615e28565b50505050905090810190601f168015615e705780820380516001836020036101000a031916815260200191505b509c5050505050505050505050505060405180910390a19695505050505050565b6003600090615e9e616544565b906101000a900473ffffffffffffffffffffffffffffffffffffffff1673ffffffffffffffffffffffffffffffffffffffff165a615eda6164e7565b73ffffffffffffffffffffffffffffffffffffffff1614615f0357600080615f00616216565b50505b565b600080600760008473ffffffffffffffffffffffffffffffffffffffff1673ffffffffffffffffffffffffffffffffffffffff168152602001908152602001600020615f4f616544565b9050600260008473ffffffffffffffffffffffffffffffffffffffff1673ffffffffffffffffffffffffffffffffffffffff168152602001908152602001600020600090615f9b616544565b906101000a900460ff1680616019575062030d408411158015616003575060008060008573ffffffffffffffffffffffffffffffffffffffff1673ffffffffffffffffffffffffffffffffffffffff168152602001908152602001600020616001616544565b145b801561601857506005616014616544565b8111155b5b15616028576000915050616152565b600081141561603e57600561603b616544565b90505b6009600086600660008773ffffffffffffffffffffffffffffffffffffffff1673ffffffffffffffffffffffffffffffffffffffff16815260200190815260200160002060009061608d616544565b906101000a900460f81b6040516020018083805190602001908083835b602083106160cd57805182526020820191506020810190506020830392506160aa565b6001836020036101000a038019825116818451168082178552505050505050905001827effffffffffffffffffffffffffffffffffffffffffffffffffffffffffffff1916815260010192505050604051602081830303815290604052805190602001208152602001908152602001600020616147616544565b915080840282019150505b9392505050565b60006161698362030d4084615f05565b905092915050565b600061618683835a6161816164e7565b615f05565b9050803410616202576000813403905060008111156161fc575a6161a86164e7565b73ffffffffffffffffffffffffffffffffffffffff166108fc8290811502906040516000604051808303818588886161de6163e7565b50505050505093505050506161fb576000806161f8616216565b50505b5b50616210565b60008061620d616216565b50505b92915050565b632a2a7adb598160e01b8152600481016020815285602082015260005b86811015616251578086015181604084010152602081019050616233565b506020828760640184336000905af158600e01573d6000803e3d6000fd5b3d6001141558600a015760016000f35b505050565b638435035b598160e01b8152836004820152602081602483336000905af158600e01573d6000803e3d6000fd5b3d6001141558600a015760016000f35b8051935060005b60408110156162e2576000818301526020810190506162c8565b505050565b638540661f598160e01b8152616326565b600081905081831115616309578290505b92915050565b600081905081831015616320578290505b92915050565b836004820152846024820152606060448201528660648201526084810160005b88811015616361578088015181830152602081019050616346565b506060828960a40184336000905af158600e01573d6000803e3d6000fd5b3d6001141558600a015760016000f35b815160408301513d6000853e8b8b82606087013350600060045af150596163b68d3d61630f565b8c016163c281876162f8565b5b828110156163da57600081526020810190506163c3565b50839d5050505050505050565b6385979f76598160e01b8152616426565b600081905081831115616409578290505b92915050565b600081905081831015616420578290505b92915050565b836004820152846024820152606060448201528760648201526084810160005b89811015616461578089015181830152602081019050616446565b506060828a60a40184336000905af158600e01573d6000803e3d6000fd5b3d6001141558600a015760016000f35b815160408301513d6000853e8c8c82606087013350600060045af150596164b68e3d61640f565b8d016164c281876163f8565b5b828110156164da57600081526020810190506164c3565b50839e5050505050505050565b6373509064598160e01b8152602081600483336000905af158600e01573d6000803e3d6000fd5b3d6001141558600a015760016000f35b8051935060005b604081101561653f57600081830152602081019050616525565b505050565b6303daa959598160e01b8152836004820152602081602483336000905af158600e01573d6000803e3d6000fd5b3d6001141558600a015760016000f35b8051935060005b60408110156165a257600081830152602081019050616588565b505050565b6322bd64c0598160e01b8152836004820152846024820152600081604483336000905af158600e01573d6000803e3d6000fd5b3d6001141558600a015760016000f35b60005b6040811015616607576000818301526020810190506165ed565b505050565b5080616616616544565b6000826166216165a7565b50509060005260206000209081019061663a91906166f7565b50565b63bdbf8c36598160e01b8152602081600483336000905af158600e01573d6000803e3d6000fd5b3d6001141558600a015760016000f35b8051935060005b60408110156166955760008183015260208101905061667b565b505050565b6320160f3a598160e01b8152602081600483336000905af158600e01573d6000803e3d6000fd5b3d6001141558600a015760016000f35b8051935060005b60408110156166f2576000818301526020810190506166d8565b505050565b5b808211156167195760008160009061670e6165a7565b5050506001016166f8565b509056",
  "linkReferences": {},
  "deployedLinkReferences": {}
}