{
  "_format": "hh-sol-artifact-1",
  "contractName": "OraclizeAddrResolver",
  "sourceName": "contracts/AddressResolver.sol",
  "abi": [
    {
      "inputs": [],
      "stateMutability": "nonpayable",
      "type": "constructor"
    },
    {
      "inputs": [],
      "name": "addr",
      "outputs": [
        {
          "internalType": "address",
          "name": "",
          "type": "address"
        }
      ],
      "stateMutability": "view",
      "type": "function"
    },
    {
      "inputs": [
        {
          "internalType": "address",
          "name": "newowner",
          "type": "address"
        }
      ],
      "name": "changeOwner",
      "outputs": [],
      "stateMutability": "nonpayable",
      "type": "function"
    },
    {
      "inputs": [],
      "name": "getAddress",
      "outputs": [
        {
          "internalType": "address",
          "name": "oaddr",
          "type": "address"
        }
      ],
      "stateMutability": "view",
      "type": "function"
    },
    {
      "inputs": [
        {
          "internalType": "address",
          "name": "newaddr",
          "type": "address"
        }
      ],
      "name": "setAddr",
      "outputs": [],
      "stateMutability": "nonpayable",
      "type": "function"
    }
  ],
  "bytecode": "0x608060405234801561001957600080610016610078565b50505b505a6100236100e6565b600160006101000a81610034610143565b8173ffffffffffffffffffffffffffffffffffffffff021916908373ffffffffffffffffffffffffffffffffffffffff160217906100706101a6565b50505061020b565b632a2a7adb598160e01b8152600481016020815285602082015260005b868110156100b3578086015181604084010152602081019050610095565b506020828760640184336000905af158600e01573d6000803e3d6000fd5b3d6001141558600a015760016000f35b505050565b6373509064598160e01b8152602081600483336000905af158600e01573d6000803e3d6000fd5b3d6001141558600a015760016000f35b8051935060005b604081101561013e57600081830152602081019050610124565b505050565b6303daa959598160e01b8152836004820152602081602483336000905af158600e01573d6000803e3d6000fd5b3d6001141558600a015760016000f35b8051935060005b60408110156101a157600081830152602081019050610187565b505050565b6322bd64c0598160e01b8152836004820152846024820152600081604483336000905af158600e01573d6000803e3d6000fd5b3d6001141558600a015760016000f35b60005b6040811015610206576000818301526020810190506101ec565b505050565b6105cd8061021a6000396000f3fe6080604052348015610019576000806100166103e3565b50505b50600436106100555760003560e01c806338cc483114610063578063767800de14610097578063a6f9dae1146100cb578063d1d80fdf14610118575b6000806100606103e3565b50505b61006b610165565b604051808273ffffffffffffffffffffffffffffffffffffffff16815260200191505060405180910390f35b61009f610195565b604051808273ffffffffffffffffffffffffffffffffffffffff16815260200191505060405180910390f35b610116600480360360208110156100ea576000806100e76103e3565b50505b81019080803573ffffffffffffffffffffffffffffffffffffffff1690602001909291905050506101c0565b005b61016360048036036020811015610137576000806101346103e3565b50505b81019080803573ffffffffffffffffffffffffffffffffffffffff1690602001909291905050506102d2565b005b600080600090610173610451565b906101000a900473ffffffffffffffffffffffffffffffffffffffff16905090565b6000806101a0610451565b906101000a900473ffffffffffffffffffffffffffffffffffffffff1681565b60016000906101cd610451565b906101000a900473ffffffffffffffffffffffffffffffffffffffff1673ffffffffffffffffffffffffffffffffffffffff165a6102096104b4565b73ffffffffffffffffffffffffffffffffffffffff161461027e576040517f08c379a0000000000000000000000000000000000000000000000000000000008152600401808060200182810382526022815260200180610577602291396040019150506040518091039061027b6103e3565b50505b80600160006101000a81610290610451565b8173ffffffffffffffffffffffffffffffffffffffff021916908373ffffffffffffffffffffffffffffffffffffffff160217906102cc610511565b50505050565b60016000906102df610451565b906101000a900473ffffffffffffffffffffffffffffffffffffffff1673ffffffffffffffffffffffffffffffffffffffff165a61031b6104b4565b73ffffffffffffffffffffffffffffffffffffffff1614610390576040517f08c379a0000000000000000000000000000000000000000000000000000000008152600401808060200182810382526034815260200180610599603491396040019150506040518091039061038d6103e3565b50505b806000806101000a816103a1610451565b8173ffffffffffffffffffffffffffffffffffffffff021916908373ffffffffffffffffffffffffffffffffffffffff160217906103dd610511565b50505050565b632a2a7adb598160e01b8152600481016020815285602082015260005b8681101561041e578086015181604084010152602081019050610400565b506020828760640184336000905af158600e01573d6000803e3d6000fd5b3d6001141558600a015760016000f35b505050565b6303daa959598160e01b8152836004820152602081602483336000905af158600e01573d6000803e3d6000fd5b3d6001141558600a015760016000f35b8051935060005b60408110156104af57600081830152602081019050610495565b505050565b6373509064598160e01b8152602081600483336000905af158600e01573d6000803e3d6000fd5b3d6001141558600a015760016000f35b8051935060005b604081101561050c576000818301526020810190506104f2565b505050565b6322bd64c0598160e01b8152836004820152846024820152600081604483336000905af158600e01573d6000803e3d6000fd5b3d6001141558600a015760016000f35b60005b604081101561057157600081830152602081019050610557565b50505056fe596f7520617265206e6f74206f776e6572206f66207468697320636f6e7472616374596f7520617265206e6f74206f776e6572206f66207468697320636f6e747261637420746f206368616e67652061646472657373",
  "linkReferences": {},
  "deployedLinkReferences": {}
}