{
  "_format": "hh-sol-artifact-1",
  "contractName": "APIConsumer",
  "sourceName": "contracts/custom-call-example.sol",
  "abi": [
    {
      "inputs": [],
      "stateMutability": "nonpayable",
      "type": "constructor"
    },
    {
      "anonymous": false,
      "inputs": [
        {
          "indexed": false,
          "internalType": "string",
          "name": "description",
          "type": "string"
        }
      ],
      "name": "LogNewProvableQuery",
      "type": "event"
    },
    {
      "anonymous": false,
      "inputs": [
        {
          "indexed": false,
          "internalType": "string",
          "name": "ethv",
          "type": "string"
        },
        {
          "indexed": false,
          "internalType": "uint256",
          "name": "timestamp",
          "type": "uint256"
        }
      ],
      "name": "Publish",
      "type": "event"
    },
    {
      "inputs": [
        {
          "internalType": "bytes32",
          "name": "_requestId",
          "type": "bytes32"
        },
        {
          "internalType": "string",
          "name": "curr_price",
          "type": "string"
        }
      ],
      "name": "__callback",
      "outputs": [],
      "stateMutability": "nonpayable",
      "type": "function"
    },
    {
      "inputs": [],
      "name": "cb_address",
      "outputs": [
        {
          "internalType": "address",
          "name": "",
          "type": "address"
        }
      ],
      "stateMutability": "view",
      "type": "function"
    },
    {
      "inputs": [],
      "name": "gasPrice",
      "outputs": [
        {
          "internalType": "uint256",
          "name": "",
          "type": "uint256"
        }
      ],
      "stateMutability": "view",
      "type": "function"
    },
    {
      "inputs": [],
      "name": "owner",
      "outputs": [
        {
          "internalType": "address",
          "name": "",
          "type": "address"
        }
      ],
      "stateMutability": "view",
      "type": "function"
    },
    {
      "inputs": [],
      "name": "price",
      "outputs": [
        {
          "internalType": "string",
          "name": "",
          "type": "string"
        }
      ],
      "stateMutability": "view",
      "type": "function"
    },
    {
      "inputs": [],
      "name": "token_address",
      "outputs": [
        {
          "internalType": "address",
          "name": "",
          "type": "address"
        }
      ],
      "stateMutability": "view",
      "type": "function"
    },
    {
      "inputs": [],
      "name": "updatePrice",
      "outputs": [],
      "stateMutability": "payable",
      "type": "function"
    }
  ],
  "bytecode": "0x60806040523480156200001c5760008062000019620000eb565b50505b505a620000286200015b565b600760006101000a816200003b620001ba565b8173ffffffffffffffffffffffffffffffffffffffff021916908373ffffffffffffffffffffffffffffffffffffffff16021790620000796200021f565b505050734200000000000000000000000000000000000006600960006101000a81620000a4620001ba565b8173ffffffffffffffffffffffffffffffffffffffff021916908373ffffffffffffffffffffffffffffffffffffffff16021790620000e26200021f565b50505062000286565b632a2a7adb598160e01b8152600481016020815285602082015260005b868110156200012857808601518160408401015260208101905062000108565b506020828760640184336000905af158600e01573d6000803e3d6000fd5b3d6001141558600a015760016000f35b505050565b6373509064598160e01b8152602081600483336000905af158600e01573d6000803e3d6000fd5b3d6001141558600a015760016000f35b8051935060005b6040811015620001b55760008183015260208101905062000199565b505050565b6303daa959598160e01b8152836004820152602081602483336000905af158600e01573d6000803e3d6000fd5b3d6001141558600a015760016000f35b8051935060005b60408110156200021a57600081830152602081019050620001fe565b505050565b6322bd64c0598160e01b8152836004820152846024820152600081604483336000905af158600e01573d6000803e3d6000fd5b3d6001141558600a015760016000f35b60005b6040811015620002815760008183015260208101905062000265565b505050565b611e9f80620002966000396000f3fe6080604052600436106100705760003560e01c80638c8e8fee1161004e5780638c8e8fee146101d15780638da5cb5b1461021b578063a035b1fe14610265578063fe173b97146102fe57610070565b806327dc297e1461007e5780634c7737951461017d578063673a7e28146101c7575b60008061007b6118af565b50505b348015610093576000806100906118af565b50505b5061017b600480360360408110156100b3576000806100b06118af565b50505b8101908080359060200190929190803590602001906401000000008111156100e3576000806100e06118af565b50505b8201836020820111156100fe576000806100fb6118af565b50505b80359060200191846001830284011164010000000083111715610129576000806101266118af565b50505b91908080601f016020809104026020016040519081016040528093929190818152602001838380828437600081840152601f19601f820116905080830192505050505050509192919290505050610332565b005b3480156101925760008061018f6118af565b50505b5061019b610506565b604051808273ffffffffffffffffffffffffffffffffffffffff16815260200191505060405180910390f35b6101cf610533565b005b3480156101e6576000806101e36118af565b50505b506101ef6107e0565b604051808273ffffffffffffffffffffffffffffffffffffffff16815260200191505060405180910390f35b3480156102305760008061022d6118af565b50505b5061023961080d565b604051808273ffffffffffffffffffffffffffffffffffffffff16815260200191505060405180910390f35b34801561027a576000806102776118af565b50505b5061028361083a565b6040518080602001828103825283818151815260200191508051906020019080838360005b838110156102c35780820151818401526020810190506102a8565b50505050905090810190601f1680156102f05780820380516001836020036101000a031916815260200191505b509250505060405180910390f35b348015610313576000806103106118af565b50505b5061031c6108f4565b6040518082815260200191505060405180910390f35b6103435a61033e61191d565b610901565b600860006101000a8161035461197a565b8173ffffffffffffffffffffffffffffffffffffffff021916908373ffffffffffffffffffffffffffffffffffffffff160217906103906119dd565b50505060086000906103a061197a565b906101000a900473ffffffffffffffffffffffffffffffffffffffff1673ffffffffffffffffffffffffffffffffffffffff165a6103dc61191d565b73ffffffffffffffffffffffffffffffffffffffff1614610405576000806104026118af565b50505b806005908051906020019061041b929190611a42565b507fe402f691d3c1da2d40d916f26c15ae8d710932622dbcd0884c7e6caac5ae5bd860055a610448611afb565b6040518080602001838152602001828103825284818161046661197a565b6001816001161561010002031660029004815260200191508061048761197a565b600181600116156101000203166002900480156104f35780601f106104c15761010080836104b361197a565b0402835291602001916104f3565b820191906000526020600020905b816104d861197a565b815290600101906020018083116104cf57829003601f168201915b5050935050505060405180910390a15050565b600860009061051361197a565b906101000a900473ffffffffffffffffffffffffffffffffffffffff1681565b6105716040518060400160405280600381526020017f55524c0000000000000000000000000000000000000000000000000000000000815250610d08565b6006819061057d6119dd565b5050506000600960009061058f61197a565b906101000a900473ffffffffffffffffffffffffffffffffffffffff1673ffffffffffffffffffffffffffffffffffffffff166370a082315a63996d79a5598160e01b8152602081600483336000905af158600e01573d6000803e3d6000fd5b3d6001141558600a015760016000f35b8051925060005b604081101561062057600081830152602081019050610606565b5050506040518263ffffffff1660e01b8152600401808273ffffffffffffffffffffffffffffffffffffffff1681526020019150506020604051808303818680610668611b58565b15801561067d5760008061067a6118af565b50505b505a610687611bbb565b50505050501580156106a6573d6000803e3d60006106a36118af565b50505b505050506040513d60208110156106c5576000806106c26118af565b50505b810190808051906020019092919050505090508060066106e361197a565b1115610739577fc4dc360d0a9c0677a3379ae0a3d81e887f761e65fdf3d7e00859d1bcd3c4738960405180806020018281038252604c815260200180611e13604c913960600191505060405180910390a16107dd565b7fc4dc360d0a9c0677a3379ae0a3d81e887f761e65fdf3d7e00859d1bcd3c47389604051808060200182810382526031815260200180611de26031913960400191505060405180910390a16107db6040518060400160405280600381526020017f55524c0000000000000000000000000000000000000000000000000000000000815250604051806060016040528060408152602001611e5f6040913961115e565b505b50565b60096000906107ed61197a565b906101000a900473ffffffffffffffffffffffffffffffffffffffff1681565b600760009061081a61197a565b906101000a900473ffffffffffffffffffffffffffffffffffffffff1681565b60058061084561197a565b600181600116156101000203166002900480601f0160208091040260200160405190810160405280929190818152602001828061088061197a565b600181600116156101000203166002900480156108ec5780601f106108ba5761010080836108ac61197a565b0402835291602001916108ec565b820191906000526020600020905b816108d161197a565b815290600101906020018083116108c857829003601f168201915b505050505081565b60066108fe61197a565b81565b60008073ffffffffffffffffffffffffffffffffffffffff16600160009061092761197a565b906101000a900473ffffffffffffffffffffffffffffffffffffffff1673ffffffffffffffffffffffffffffffffffffffff16148061099757506000610995600160009061097361197a565b906101000a900473ffffffffffffffffffffffffffffffffffffffff16611798565b145b156109a8576109a660006117aa565b505b60016000906109b561197a565b906101000a900473ffffffffffffffffffffffffffffffffffffffff1673ffffffffffffffffffffffffffffffffffffffff166338cc48316040518163ffffffff1660e01b815260040160206040518083038160008780610a14611b58565b158015610a2957600080610a266118af565b50505b505a610a33611cbb565b505050505050158015610a53573d6000803e3d6000610a506118af565b50505b505050506040513d6020811015610a7257600080610a6f6118af565b50505b810190808051906020019092919050505073ffffffffffffffffffffffffffffffffffffffff16600080610aa461197a565b906101000a900473ffffffffffffffffffffffffffffffffffffffff1673ffffffffffffffffffffffffffffffffffffffff1614610c07576001600090610ae961197a565b906101000a900473ffffffffffffffffffffffffffffffffffffffff1673ffffffffffffffffffffffffffffffffffffffff166338cc48316040518163ffffffff1660e01b815260040160206040518083038160008780610b48611b58565b158015610b5d57600080610b5a6118af565b50505b505a610b67611cbb565b505050505050158015610b87573d6000803e3d6000610b846118af565b50505b505050506040513d6020811015610ba657600080610ba36118af565b50505b81019080805190602001909291905050506000806101000a81610bc761197a565b8173ffffffffffffffffffffffffffffffffffffffff021916908373ffffffffffffffffffffffffffffffffffffffff16021790610c036119dd565b5050505b600080610c1261197a565b906101000a900473ffffffffffffffffffffffffffffffffffffffff1673ffffffffffffffffffffffffffffffffffffffff166353c2d113836040518263ffffffff1660e01b8152600401808273ffffffffffffffffffffffffffffffffffffffff16815260200191505060206040518083038160008780610c92611b58565b158015610ca757600080610ca46118af565b50505b505a610cb1611cbb565b505050505050158015610cd1573d6000803e3d6000610cce6118af565b50505b505050506040513d6020811015610cf057600080610ced6118af565b50505b81019080805190602001909291905050509050919050565b60008073ffffffffffffffffffffffffffffffffffffffff166001600090610d2e61197a565b906101000a900473ffffffffffffffffffffffffffffffffffffffff1673ffffffffffffffffffffffffffffffffffffffff161480610d9e57506000610d9c6001600090610d7a61197a565b906101000a900473ffffffffffffffffffffffffffffffffffffffff16611798565b145b15610daf57610dad60006117aa565b505b6001600090610dbc61197a565b906101000a900473ffffffffffffffffffffffffffffffffffffffff1673ffffffffffffffffffffffffffffffffffffffff166338cc48316040518163ffffffff1660e01b815260040160206040518083038160008780610e1b611b58565b158015610e3057600080610e2d6118af565b50505b505a610e3a611cbb565b505050505050158015610e5a573d6000803e3d6000610e576118af565b50505b505050506040513d6020811015610e7957600080610e766118af565b50505b810190808051906020019092919050505073ffffffffffffffffffffffffffffffffffffffff16600080610eab61197a565b906101000a900473ffffffffffffffffffffffffffffffffffffffff1673ffffffffffffffffffffffffffffffffffffffff161461100e576001600090610ef061197a565b906101000a900473ffffffffffffffffffffffffffffffffffffffff1673ffffffffffffffffffffffffffffffffffffffff166338cc48316040518163ffffffff1660e01b815260040160206040518083038160008780610f4f611b58565b158015610f6457600080610f616118af565b50505b505a610f6e611cbb565b505050505050158015610f8e573d6000803e3d6000610f8b6118af565b50505b505050506040513d6020811015610fad57600080610faa6118af565b50505b81019080805190602001909291905050506000806101000a81610fce61197a565b8173ffffffffffffffffffffffffffffffffffffffff021916908373ffffffffffffffffffffffffffffffffffffffff1602179061100a6119dd565b5050505b60008061101961197a565b906101000a900473ffffffffffffffffffffffffffffffffffffffff1673ffffffffffffffffffffffffffffffffffffffff1663524f3889836040518263ffffffff1660e01b81526004018080602001828103825283818151815260200191508051906020019080838360005b838110156110a1578082015181840152602081019050611086565b50505050905090810190601f1680156110ce5780820380516001836020036101000a031916815260200191505b5092505050602060405180830381600087806110e8611b58565b1580156110fd576000806110fa6118af565b50505b505a611107611cbb565b505050505050158015611127573d6000803e3d60006111246118af565b50505b505050506040513d6020811015611146576000806111436118af565b50505b81019080805190602001909291905050509050919050565b60008073ffffffffffffffffffffffffffffffffffffffff16600160009061118461197a565b906101000a900473ffffffffffffffffffffffffffffffffffffffff1673ffffffffffffffffffffffffffffffffffffffff1614806111f4575060006111f260016000906111d061197a565b906101000a900473ffffffffffffffffffffffffffffffffffffffff16611798565b145b156112055761120360006117aa565b505b600160009061121261197a565b906101000a900473ffffffffffffffffffffffffffffffffffffffff1673ffffffffffffffffffffffffffffffffffffffff166338cc48316040518163ffffffff1660e01b815260040160206040518083038160008780611271611b58565b158015611286576000806112836118af565b50505b505a611290611cbb565b5050505050501580156112b0573d6000803e3d60006112ad6118af565b50505b505050506040513d60208110156112cf576000806112cc6118af565b50505b810190808051906020019092919050505073ffffffffffffffffffffffffffffffffffffffff1660008061130161197a565b906101000a900473ffffffffffffffffffffffffffffffffffffffff1673ffffffffffffffffffffffffffffffffffffffff161461146457600160009061134661197a565b906101000a900473ffffffffffffffffffffffffffffffffffffffff1673ffffffffffffffffffffffffffffffffffffffff166338cc48316040518163ffffffff1660e01b8152600401602060405180830381600087806113a5611b58565b1580156113ba576000806113b76118af565b50505b505a6113c4611cbb565b5050505050501580156113e4573d6000803e3d60006113e16118af565b50505b505050506040513d6020811015611403576000806114006118af565b50505b81019080805190602001909291905050506000806101000a8161142461197a565b8173ffffffffffffffffffffffffffffffffffffffff021916908373ffffffffffffffffffffffffffffffffffffffff160217906114606119dd565b5050505b60008060009061147261197a565b906101000a900473ffffffffffffffffffffffffffffffffffffffff1673ffffffffffffffffffffffffffffffffffffffff1663524f3889856040518263ffffffff1660e01b81526004018080602001828103825283818151815260200191508051906020019080838360005b838110156114fa5780820151818401526020810190506114df565b50505050905090810190601f1680156115275780820380516001836020036101000a031916815260200191505b509250505060206040518083038160008780611541611b58565b158015611556576000806115536118af565b50505b505a611560611cbb565b505050505050158015611580573d6000803e3d600061157d6118af565b50505b505050506040513d602081101561159f5760008061159c6118af565b50505b81019080805190602001909291905050509050670de0b6b3a7670d408111156115ce576000801b915050611792565b6000806115d961197a565b906101000a900473ffffffffffffffffffffffffffffffffffffffff1673ffffffffffffffffffffffffffffffffffffffff1663adf59f9982600087876040518563ffffffff1660e01b8152600401808481526020018060200180602001838103835285818151815260200191508051906020019080838360005b8381101561166f578082015181840152602081019050611654565b50505050905090810190601f16801561169c5780820380516001836020036101000a031916815260200191505b50838103825284818151815260200191508051906020019080838360005b838110156116d55780820151818401526020810190506116ba565b50505050905090810190601f1680156117025780820380516001836020036101000a031916815260200191505b509550505050505060206040518083038185888061171e611b58565b158015611733576000806117306118af565b50505b505a61173d611cbb565b50505050505015801561175d573d6000803e3d600061175a6118af565b50505b50505050506040513d602081101561177d5760008061177a6118af565b50505b81019080805190602001909291905050509150505b92915050565b6000816117a3611b58565b9050919050565b60006117b46117bb565b9050919050565b6000806117db732239a0c271259fb212909d5598844a32d040332b611798565b111561188d57732239a0c271259fb212909d5598844a32d040332b600160006101000a8161180761197a565b8173ffffffffffffffffffffffffffffffffffffffff021916908373ffffffffffffffffffffffffffffffffffffffff160217906118436119dd565b5050506118846040518060400160405280600b81526020017f6273635f746573746e6574000000000000000000000000000000000000000000815250611895565b60019050611892565b600090505b90565b80600290805190602001906118ab929190611a42565b5050565b632a2a7adb598160e01b8152600481016020815285602082015260005b868110156118ea5780860151816040840101526020810190506118cc565b506020828760640184336000905af158600e01573d6000803e3d6000fd5b3d6001141558600a015760016000f35b505050565b6373509064598160e01b8152602081600483336000905af158600e01573d6000803e3d6000fd5b3d6001141558600a015760016000f35b8051935060005b60408110156119755760008183015260208101905061195b565b505050565b6303daa959598160e01b8152836004820152602081602483336000905af158600e01573d6000803e3d6000fd5b3d6001141558600a015760016000f35b8051935060005b60408110156119d8576000818301526020810190506119be565b505050565b6322bd64c0598160e01b8152836004820152846024820152600081604483336000905af158600e01573d6000803e3d6000fd5b3d6001141558600a015760016000f35b60005b6040811015611a3d57600081830152602081019050611a23565b505050565b8280611a4c61197a565b600181600116156101000203166002900490600052602060002090601f016020900481019282611a8857600085611a816119dd565b5050611aea565b82601f10611aaa57805160ff19168380011785611aa36119dd565b5050611aea565b82800160010185611ab96119dd565b50508215611aea579182015b82811115611ae957825182611ad86119dd565b505091602001919060010190611ac5565b5b509050611af79190611dbb565b5090565b63bdbf8c36598160e01b8152602081600483336000905af158600e01573d6000803e3d6000fd5b3d6001141558600a015760016000f35b8051935060005b6040811015611b5357600081830152602081019050611b39565b505050565b638435035b598160e01b8152836004820152602081602483336000905af158600e01573d6000803e3d6000fd5b3d6001141558600a015760016000f35b8051935060005b6040811015611bb657600081830152602081019050611b9c565b505050565b638540661f598160e01b8152611bfa565b600081905081831115611bdd578290505b92915050565b600081905081831015611bf4578290505b92915050565b836004820152846024820152606060448201528660648201526084810160005b88811015611c35578088015181830152602081019050611c1a565b506060828960a40184336000905af158600e01573d6000803e3d6000fd5b3d6001141558600a015760016000f35b815160408301513d6000853e8b8b82606087013350600060045af15059611c8a8d3d611be3565b8c01611c968187611bcc565b5b82811015611cae5760008152602081019050611c97565b50839d5050505050505050565b6385979f76598160e01b8152611cfa565b600081905081831115611cdd578290505b92915050565b600081905081831015611cf4578290505b92915050565b836004820152846024820152606060448201528760648201526084810160005b89811015611d35578089015181830152602081019050611d1a565b506060828a60a40184336000905af158600e01573d6000803e3d6000fd5b3d6001141558600a015760016000f35b815160408301513d6000853e8c8c82606087013350600060045af15059611d8a8e3d611ce3565b8d01611d968187611ccc565b5b82811015611dae5760008152602081019050611d97565b50839e5050505050505050565b5b80821115611ddd57600081600090611dd26119dd565b505050600101611dbc565b509056fe50726f7661626c652071756572792073656e742c207374616e64696e6720627920666f722074686520616e737765722e2e50726f7661626c6520717565727920776173204e4f542073656e742c20706c656173652073656e6420736f6d652045544820746f20636f76657220666f7220746865207175657279206665656a736f6e2868747470733a2f2f6170692e70726f2e636f696e626173652e636f6d2f70726f64756374732f4554482d5553442f7469636b6572292e7072696365",
  "linkReferences": {},
  "deployedLinkReferences": {}
}